:100000000C9432050C9479050C9479050C947905BF
:100010000C9479050C9479050C9479050C94790568
:100020000C9479050C9479050C9427270C94FA27E5
:100030000C949D1D0C9479050C9479050C9479050C
:100040000C9479050C9479050C9479050C94790538
:100050000C9479050C94FE1D0C9479050C9479058B
:100060000C9479050C9479050C9479050C94790518
:100070000C9479050C9479050C9479050C94790508
:100080000C9479050C9479050C9479050C947905F8
:100090000C9479050C9479050C9479050C947905E8
:1000A0000C9479050C9479050C94790514001A00C8
:1000B000080015001700000000001C0018000C00CC
:1000C0001200130004001600070009000A000000D7
:1000D00000000B000D000E000F0033001D001B0080
:1000E0000600190005000000000011001000360095
:1000F00037003800E00000000000E200E30001519A
:1001000002512C00045103510000E1001E021F02A5
:100110002002210222020000000023022402250204
:10012000260227022B00400041004200430000004D
:1001300000002D002E002F003000310001003D0096
:100140003E003F004400000000002D022E022F025E
:100150003002340035003A003B003C00450001000D
:10016000010001002A000100010028001E001F00FC
:1001700020002100220000000000230024002500B0
:10018000260027002B00010001000100210A0000C9
:1001900000005000510052004F00310201000100E8
:1001A0000100190E0100000000002D022E022F0296
:1001B0003002340235024C00010001000100010050
:1001C000010001002A000100010028003470357090
:1001D00036703770010000000000AB00AE00AD00CB
:1001E000AC000100387039703A703B7001000000BB
:1001F0000000A900AA00A800010001000100010000
:1002000001000100010000000000010001000100E8
:100210000100010001000100010001000070010067
:100220000100010001000100010028002900010077
:1002300001000100010000000000010001000100B8
:1002400001002A002B000100010001000100000054
:100250000000010001000100010001000100010097
:100260000100010001000000000001000100010088
:100270000100010001000100010001000100010076
:10028000010001000100010001002800010001003F
:100290000100010001000000000001000100010058
:1002A0000100010001000100010001000100000047
:1002B0000000010001000100010001000100010037
:1002C0000100010001000000000001000100010028
:1002D0000100010001000100010001000100010016
:1002E0000100010001000100010001000100010006
:1002F00001000100010000000000010001000100F8
:1003000001000100010001000100010001000000E6
:1003100000000100010001000100010001000100D6
:1003200001000100010000000000010001000100C7
:1003300001000100010001000100010001000100B5
:1003400001000100010001000100010001000100A5
:100350000100010001000000000001000100010097
:100360000100010001000100010001000100000086
:100370000000010001000100010001000100010076
:100380000100010001000000000001000100010067
:100390000100010001000100010001000100010055
:1003A0000100010001000100010001000100010045
:1003B0000100010001000000000001000100010037
:1003C0000100010001000100010001000100000026
:1003D0000000010001000100010001000100010016
:1003E0000100010001000000000001000100010007
:1003F00001000100010001000100010001000100F5
:1004000001000100010001000100010001000100E4
:1004100001000100010000000000010001000100D6
:1004200001000100010001000100010001000000C5
:1004300000000100010001000100010001000100B5
:1004400001000100010000000000010001000100A6
:100450000100010001000100010001000100010094
:100460000100010001000100010001000100010084
:100470000100010001000000000001000100010076
:100480000100010001000100010001000100000065
:100490000000010001000100010001000100010055
:1004A0000100010001000000000001000100010046
:1004B0000100010001000100010001000100010034
:1004C0000100010001000100010001000100010024
:1004D0000100010001000000000001000100010016
:1004E0000100010001000100010001000100000005
:1004F00000000100010001000100010001000100F5
:1005000001000100010000000000010001000100E5
:1005100001000100010001000100010001000100D3
:1005200001000100010001000100010001000100C3
:1005300001000100010000000000010001000100B5
:1005400001000100010001000100010001000000A4
:100550000000010001000100010001000100010094
:100560000100010001000000000001000100010085
:100570000100010001000100010001000100010073
:100580000100010001000100010001000100010063
:100590000100010001000000000001000100010055
:1005A0000100010001000100010001000100000044
:1005B0000000010001000100010001000100010034
:1005C0000100010001000000000001000100010025
:1005D0000100010001000100010001000100010013
:1005E0000100010001000100010001000100010003
:1005F00001000100010000000000010001000100F5
:1006000001000100010001000100010001000000E3
:1006100000000100010001000100010001000100D3
:1006200001000100010000000000010001000100C4
:1006300001000100010001000100010001000100B2
:1006400001000100010001000100010001000100A2
:100650000100010001000000000001000100010094
:100660000100010001000100010001000100000083
:100670000000010001000100010001000100010073
:100680000100010001000000000001000100010064
:100690000100010001000100010001000100010052
:1006A0000100010001000100010001006432146436
:1006B0003214783C1E1E140A0500000000010101DE
:1006C0000202030405050607090A0B0C0E0F11129E
:1006D000141517191B1D1F212325282A2C2F3134EF
:1006E00036393B3E414346494C4F5255585A5D615D
:1006F00064676A6D707376797C7F8386898C8F924C
:1007000095989B9EA2A5A7AAADB0B3B6B9BCBEC131
:10071000C4C6C9CBCED0D3D5D7DADCDEE0E2E4E67E
:10072000E8EAEBEDEEF0F1F3F4F5F6F8F9FAFAFB9E
:10073000FCFDFDFEFEFEFFFFFFFFFFFFFFFEFEFED6
:10074000FDFDFCFBFAFAF9F8F6F5F4F3F1F0EEED45
:10075000EBEAE8E6E4E2E0DEDCDAD7D5D3D0CECBD4
:10076000C9C6C4C1BEBCB9B6B3B0ADAAA7A5A29E46
:100770009B9895928F8C898683807C797673706D37
:100780006A6764615D5A5855524F4C494643413E31
:100790003B393634312F2C2A282523211F1D1B19C4
:1007A00017151412110F0E0C0B0A09070605050484
:1007B000030202010101000000000000000001012D
:1007C0000101010101010102020202020202020210
:1007D00003030303030303030404040404040505DF
:1007E00005050506060606060707070708080808A0
:1007F0000909090A0A0A0A0B0B0B0C0C0C0D0D0D4A
:100800000E0E0F0F0F1010111111121213131414DA
:10081000151516161717181819191A1A1B1C1C1D4E
:100820001D1E1F1F202021222223242525262727A5
:1008300028292A2B2B2C2D2E2F2F303132333435D3
:1008400036363738393A3B3C3D3E3F4041424344DF
:10085000464748494A4B4C4D4F50515253555657B5
:10086000585A5B5C5E5F606263646667696A6C6D60
:100870006E707173747678797B7C7E8081838486D8
:10088000888A8B8D8F91929496989A9B9D9FA1A315
:10089000A5A7A9ABADAFB1B3B5B7B9BBBDBFC1C417
:1008A000C6C8CACCCFD1D3D6D8DADCDFE1E4E6E8DB
:1008B000EBEDF0F2F5F7FAFCFF12036B006500793F
:1008C0000062006F00610072006400000016037196
:1008D000006D006B006200750069006C00640065CB
:1008E00000720000000403090409026D0004010005
:1008F000A0FA09040000010301010009211101000F
:10090000012240000705810308000A0904010001D3
:1009100003010200092111010001224D0007058297
:100920000308000A09040200010300000009211164
:100930000100012236000705830308000A090403A9
:100940000001030000000921110100012239000704
:100950000584032000011201100100000008EDFED3
:10096000606001000102000105010906A1010507FF
:1009700019E029E715002501950875018102050890
:1009800019012905950575019102950175039101DC
:100990000507190029F71500250195F87501810251
:1009A000C005010980A10185021601002603001A75
:1009B00081002A8300751095018100C0050C090192
:1009C000A1018503160100269C021A01002A9C023F
:1009D000751095018100C005010902A1010901A15D
:1009E00000050919012905150025019505750181E5
:1009F0000295017503810105010930093115812531
:100A00007F95027508810609381581257F95017546
:100A1000088106050C0A38021581257F95017508A5
:100A20008106C0C005010906A101050719E029E7F3
:100A30001500250195087501810295017508810150
:100A400005081901290595057501910295017503A0
:100A500091010507190029FF150026FF009506756D
:100A6000088100C011241FBECFEFDAE0DEBFCDBF8A
:100A700004B603FE27C08091CE029091CF02A091D0
:100A8000D002B091D1028730904BA740B04BD1F447
:100A90001092CE021092CF021092D0021092D10288
:100AA00014BE84B7877F84BF0FB6F894A895809151
:100AB0006000886180936000109260000FBEE0E0EB
:100AC000F8E3099511E0A0E0B1E0E4E0F7E502C049
:100AD00005900D92A833B107D9F722E0A8E3B1E061
:100AE00001C01D92AE3CB207E1F70E947B240C943A
:100AF0004B2B0C94000090E080E008950895089539
:100B000081E0089580FF0BC0529A5A9881FF09C076
:100B1000519A599882FF07C0509A58980895529850
:100B2000F4CF5198F6CF5098F8CF81E008950C9407
:100B300080050E94D4152FEF84E39CE02150804073
:100B40009040E1F700C000000C94211EEF92FF924C
:100B50000F931F93CF93DF937C01DC010D911C91C8
:100B6000119780918301811143C012968C91882343
:100B7000D1F1C8010E94591BC82F682FC8010E94DB
:100B8000021BB8018C2F0E945707EC01B7010E948D
:100B90009705882309F468C0B701CE010E948F0928
:100BA000882309F461C0CE33B0E7DB0770F4C433A7
:100BB000E0E7DE0710F5C130F0E7DF0709F45CC0BD
:100BC00050F5C115D04709F44AC081E080933A013D
:100BD00080933B01C701DF91CF911F910F91FF904F
:100BE000EF900C949505C8010E94301BC82FC9CF07
:100BF000C8010E94591BB801C6CFFE01E553F0475A
:100C0000D70112968C91E930F10508F040C0E35B02
:100C1000F44D0C94FD2ACE01825090474397A8F6DC
:100C2000F70182818823B1F20E94201D811102C048
:100C30000E94FA1C0E943D1D90E09093BF02809399
:100C4000BE02FE01E350F0478091BE028160E231B6
:100C5000F10508F047C0EA5AF44D0C94FD2AF7015B
:100C6000828181110E94990580E0DF91CF911F91CF
:100C70000F91FF90EF900895D70112968C918823E1
:100C800099F380910702816080930702EDCF88235A
:100C900059F30E94080EE8CF882331F30E94FE0D1D
:100CA000E3CF882309F30E94DB0CDECF8823E1F237
:100CB0000E94F30CD9CF8823B9F20E94120DD4CF31
:100CC000882391F20E942A0DCFCF882369F20E94D7
:100CD000420DCACF882341F20E945A0DC5CF8091A0
:100CE000BE0282608093BE028091BE020E94411DBE
:100CF0000E94D415B9CF8091BE028460F3CF809159
:100D0000BE028860EFCF8091BE028061EBCF809100
:100D1000BE028062E7CF8091BE028064E3CF809103
:100D2000BE028068DFCF8091BE028C60DBCF8091F5
:100D3000BE028E7FD7CF8091BE028D7FD3CF8091B0
:100D4000BE028B7FCFCF8091BE02877FCBCF8091B9
:100D5000BE028F7EC7CF8091BE028F7DC3CF8091B0
:100D6000BE028F7BBFCF8091BE028F77BBCF8091B9
:100D7000BE02837FB7CF9091BE02892F97FB87F980
:100D80008058B0CF882361F010923A010E94CD1DA7
:100D9000909339018093380182E00E94191364CF47
:100DA00080913A0181110FC08091380190913901F1
:100DB0000E94D91D883C910530F486E20E94EE1114
:100DC00086E20E94CA1282E00E9420134DCF88233F
:100DD00051F010923B010E94CD1D909339018093F8
:100DE000380180E2DACF80913B0181110FC0809100
:100DF0003801909139010E94D91D883C910530F449
:100E000087E20E94EE1187E20E94CA1280E2DCCFE4
:100E10000C94E009279A2F988FEF9FEF909387000B
:100E2000809386008AE08093800089E1809381002E
:100E30000C942D220E940A070C94DE092F98811130
:100E40000AC080918000877F8093800010928D007F
:100E500010928C0008958A3061F48091800088603F
:100E6000809380008FEF9FEF90938D0080938C0094
:100E70000895909180009860909380002AE030E07F
:100E8000A901481B5109CA0145E0489F9001499FAB
:100E9000300D11248FEF9FEF02C0969587952A950C
:100EA000E2F7E2CF0C9482050C9452070895972F35
:100EB00070E02CE0929F600D711D1124FB0190E306
:100EC000899FE00DF11D1124EE0FFF1FE455FF4F28
:100ED000859194910895FC01EE0FFF1FE455F94FA1
:100EE0008591949108950E9457070E9413099C01CF
:100EF000211581E5380708F046C0211590E539072E
:100F000008F00CC1283E310518F5203E3105C8F522
:100F1000283A310578F4253A310508F097C0213098
:100F2000310579F1C9010497813A910550F130E01A
:100F300020E027C02D3B310508F493C0C901805C37
:100F400091098032910598F70E946B079C0119C0A6
:100F5000211580E3380770F4211590E2390708F075
:100F6000D7C02F3F310509F060F4203F3105F8F27A
:100F7000306507C0211580E4380708F4CCC03F7005
:100F8000306AC9010895211590E73907C8F5211580
:100F900080E6380708F0FAC0211594E53907F0F427
:100FA000211583E5380708F0D8C0211592E53907E7
:100FB00008F4CEC0C9018370992741E050E002C017
:100FC000440F551F8A95E2F72695269580E2289FC3
:100FD00090011124242B352B3C68D3CF211595E5A6
:100FE000390708F4CEC0C90195558F3F910511F01E
:100FF00008F09DCF322F222722273F713062C1CFC8
:10100000213380E7380709F4C3C0A0F4203380E718
:10101000380748F4203290E7390708F488CF205287
:101020003047346DAECF2033304709F080CF20E019
:1010300031EDA7CF223390E7390709F4ACC0233351
:10104000304709F074CF20E033ED9BCF253A3105CE
:1010500009F4A4C0263A310509F0A3C022E830E41F
:1010600090CF283A310509F49FC0293A310509F497
:101070009EC02A3A310509F49DC02B3A310509F486
:101080009CC02C3A310509F49BC02B3B310509F477
:101090009AC02C3B310509F499C02D3A310509F469
:1010A00098C0203B310509F497C02E3A310509F468
:1010B00096C02F3A310509F495C0213B310509F45A
:1010C00094C0223B310509F493C0233B310509F458
:1010D00092C0243B310509F491C0253B310509F448
:1010E00090C0263B310509F48FC0273B310509F438
:1010F0008EC0283B310509F48DC0293B310509F428
:101100008CC02A3B310509F48BC020E034E439CF90
:10111000C9019F7019CF3327306C33CFC90154E018
:10112000969587955A95E1F78370422F4695469597
:10113000437090E2499FA0011124582B822F8370A5
:1011400021E030E002C0220F331F8A95E2F742CF40
:10115000322F2227216F306A14CFC901837099275B
:1011600041E050E002C0440F551F8A95E2F72695F2
:10117000269580E2289F90011124242B352B3A6874
:1011800000CF322F2227246F306AFBCE3F7036CF3C
:1011900020E030EDF6CE20E032EDF3CE21E830E471
:1011A000F0CE23E830E4EDCE22EE34E4EACE29EEB0
:1011B00034E4E7CE2AEE34E4E4CE25EB34E4E1CEA9
:1011C00026EB34E4DECE23EB34E4DBCE24EB34E454
:1011D000D8CE27EB34E4D5CE2CEC34E4D2CE2DECB3
:1011E00034E4CFCE23E835E4CCCE2AE835E4C9CECA
:1011F00022E935E4C6CE24E935E4C3CE21E236E463
:10120000C0CE23E236E4BDCE24E236E4BACE25E2F7
:1012100036E4B7CE26E236E4B4CE27E236E4B1CEE9
:101220002AE236E4AECE803E910581F1C8F48133E6
:10123000910509F462C048F48932910509F456C059
:101240008A32910509F460C0089589339105B9F097
:1012500082389105A1F08533910509F440C00895C5
:10126000863E910561F138F4823E9105B1F0833EEE
:101270009105E1F00895873E910551F1089520917F
:10128000BE022370D9F080EE90E008952091BE0256
:1012900020FF14C089E390E008952091BE0222FF50
:1012A0000DC024FD09C083EE90E008952091BE0298
:1012B00022FD31C024FF02C090E080E0089520911B
:1012C000BE0223FFFBCF24FDF7CF87EE90E0089509
:1012D0002091BE0223FFEECF86EE90E0089520918C
:1012E000BE0225FFEBCF89E290E008952091BE0277
:1012F00025FFE4CF85E390E008952091BE0226FF0C
:10130000DDCF8AE290E008952091BE0226FFD6CF7D
:1013100081E390E0089582EE90E0089508950F93A0
:101320001F93CF938C01FB018281811106C0C1E024
:101330008C2FCF911F910F910895C0914901C11138
:1013400025C00531104799F70E948E0981E08093EE
:1013500049010E94CD1D909348018093470110924E
:101360003C0110923E0110923D01109240011092FA
:101370003F011092420110924101109244011092DB
:1013800043011092460110924501D2CF809147014E
:10139000909148010E94D91D883C910540F68091AA
:1013A0003C01E82FF0E0EE0FFF1FE35CFE4F1183DE
:1013B00000838F5F80933C01C0E0BACF0C947E0520
:1013C0000C947F05CF93DF9385B7806885BF85B781
:1013D000806885BFA0E2B1E044E251E0C1E0D0E026
:1013E0008D91E82FE295EF70F0E061A18F709E0182
:1013F00001C0220F8A95EAF7922F9095962391A328
:1014000082A1822B82A34A175B0751F7A4E1B1E0C6
:1014100040E251E0C1E0D0E08D91E82FE295EF701D
:10142000F0E061A18F709E0101C0220F8A95EAF75A
:10143000922F9095962391A382A1822B82A34A1783
:101440005B0751F7109253011092520110924B0119
:1014500010924A01109255011092540110924D01C0
:1014600010924C01109257011092560110924F01A8
:1014700010924E0110925901109258011092510190
:1014800010925001DF91CF910C941A074F925F9206
:101490007F928F929F92AF92BF92CF92DF92EF9204
:1014A000FF920F931F93CF93DF939AE4492E91E01D
:1014B000592E20E2E22E21E0F22E01E010E09924E4
:1014C0009394E201A990B9902E01DE011E921E9222
:1014D000F70181917F01E82FE295EF70F0E091A193
:1014E0008F70980101C0220F8A95EAF7892F822B0D
:1014F00081A382A1822E8094882182A380EA8A958A
:10150000F1F784E1C82E81E0D82E90E080E0E6017A
:1015100079916E01472F42954F7050E0EA0178A013
:101520004D915C9111977F70E80102C0CC0FDD1FD7
:101530007A95E2F7BE01672109F06AC0B801082E6A
:1015400002C0660F771F0A94E2F7462B572B1196BD
:101550005C934E9301968C309105C9F681A1882247
:1015600081A282A1282B22A38D919C91A816B90655
:1015700041F090925A010E94CD1D90935C0180939E
:101580005B01D2E54D16D1E05D0609F09ACF80915E
:101590005A01882351F180915B0190915C010E9476
:1015A000D91D069710F180914A0190914B019093BB
:1015B00053018093520180914C0190914D01909381
:1015C00055018093540180914E0190914F01909369
:1015D0005701809356018091500190915101909351
:1015E00059018093580110925A010E94080781E026
:1015F000DF91CF911F910F91FF90EF90DF90CF90EF
:10160000BF90AF909F908F907F905F904F90089584
:1016100070E060E09ACFE82FF0E0EE0FFF1FEE5A87
:10162000FE4F80819181089508959C01CB0168B19E
:10163000542F5095562368B1462B6FB7F894820FFC
:10164000931F2817390711F46FBF0895F90171919D
:101650009F01E8E048B9000000C077FF58B9770F54
:10166000000000C000C000C058B900C0EA9591F762
:10167000E8CFFC0197B1942B97B99B01220F331F40
:10168000620F731FCF010E94150B87EC90E001974A
:10169000F1F700C00000089540E80C94390BAF92B8
:1016A000BF92CF92DF92EF92FF920F931F93CF934F
:1016B000DF937C01E901842F242F662309F43FC0C6
:1016C000C42ED12C8FEF90E0861B9109489F80019A
:1016D000499F100D1124212F812F9927C81AD90A4B
:1016E0009CE3A92EB12CC701B5010E94D52AFB01AC
:1016F000BC01C69EC001C79E900DD69E900D1124C0
:10170000B5010E94D52AE330F10509F443C080EF0A
:10171000E816F10468F4E130F10591F13297A1F196
:101720008CE3E816F10440F180E020E040E007C0DF
:10173000E430F10599F1842F861B3597A9F7E42F42
:10174000F0E0E754F84F4491E22FF0E0E754F84F0F
:101750009491E82FF0E0E754F84FE491498398839F
:10176000EA83DF91CF911F910F91FF90EF90DF906F
:10177000CF90BF90AF900895812F262F210FDFCFFC
:10178000812F242F461BDBCF862F810FE42F412F83
:101790002E2FD5CFE42FE61B842FF9CF842F462F91
:1017A000410FCDCF88E090E00C940B2BAB01BC0136
:1017B00088E090E00C94292BCF93DF9300D000D0E9
:1017C000CDB7DEB7E4E3F2E083E0808311828FEFF0
:1017D000828383838091340290913502A0913602F6
:1017E000B091370289839A83AB83BC83BC01CD015E
:1017F0000F900F900F900F90DF91CF910C94D60B1C
:1018000080913402ECE3F2E080FF06C06AE270E00F
:101810008CE392E00C944C0B11821082128233966E
:1018200082E0EA3BF807C1F7F1CFECE3F2E0818315
:1018300060834283339692E0EA3BF907C1F70C9448
:10184000000CEF92FF920F931F93CF93DF9300D082
:101850000F92CDB7DEB7182FE92EF62E042F809108
:10186000340290913502A0913602B09137028093F4
:10187000380290933902A0933A02B0933B028091D0
:10188000340280FF1FC09E012F5F3F4F812F9E2D8E
:101890000E944F0B8091380210FB87F98093380229
:1018A0001695809139028078182BE0FA17F9109379
:1018B0003902F0923A0200933B024B8169818A819E
:1018C0000E94150C0F900F900F90DF91CF911F91F8
:1018D0000F91FF90EF9008950F931F93CF93DF9395
:1018E00000D000D00F92CDB7DEB789839D83062F3D
:1018F000142F8091340280FF54C0982F9E7792302D
:1019000091F589819D810E94210C80913402B981D9
:10191000B0FB87F980933402B695809135028078C8
:10192000B82B8D8180FBB7F9B09335020093360256
:10193000109337028091340290913502A0913602C3
:10194000B091370289839A83AB83BC83BC01CD01FC
:101950000F900F900F900F900F90DF91CF911F91EC
:101960000F910C94D60B982F96959F732EE3290F09
:101970002F73243018F410913702C7CF965C9F73F1
:10198000993018F6881F8827881F909135029D830B
:10199000990F982B9983AD81A7FBAA27A0F9AD8356
:1019A000B4CF0F900F900F900F900F90DF91CF91C9
:1019B0001F910F910895E4E3F2E02081221F222776
:1019C000221F30913502432F440F842F822B37FB87
:1019D000992790F9089668E671E00E94E92A438108
:1019E00062810C946C0C20913402221F2227221F4A
:1019F00030913502432F440F842F822B37FB9927D8
:101A000090F98830910540F4805A9E4F40913702FA
:101A1000609136020C946C0C089768E671E00E94A5
:101A2000E92AF4CF60913602683F90F4685F8091B4
:101A30003402881F8827881F90913502292F220F92
:101A400097FB992790F940913702822B0C946C0CEC
:101A50006FEFEDCF60913602683090F06850809162
:101A60003402881F8827881F90913502292F220F62
:101A700097FB992790F940913702822B0C946C0CBC
:101A800060E0EDCF40913702483F90F4485F80918D
:101A90003402881F8827881F90913502292F220F32
:101AA00097FB992790F960913602822B0C946C0C6D
:101AB0004FEFEDCF40913702483090F04850809181
:101AC0003402881F8827881F90913502292F220F02
:101AD00097FB992790F960913602822B0C946C0C3D
:101AE00040E0EDCFCF93DF9300D000D0CDB7DEB78D
:101AF0009091340290FF47C09178811132C092607A
:101B0000909334028091340290913502A091360274
:101B1000B091370289839A83AB83BC83BC01CD012A
:101B20000E94D60B80913402982F9E77923009F54F
:101B300010927201881F8827881F90913502292FE3
:101B4000220F97FB992790F9409137026091360256
:101B5000822B0F900F900F900F90DF91CF910C94EC
:101B60006C0C893110F09063CBCF8F73880F982B5A
:101B7000C7CF982F9695925C9F739631D8F691E0D7
:101B800090937201D7CF0F900F900F900F90DF912D
:101B9000CF9108958091070281608093070281E0D0
:101BA000809373010E94201D811104C00E94FA1CC1
:101BB0000E94DC0B0E94D20B6093340270933502BA
:101BC00080933602909337026E7761F40E94DC0BAB
:101BD0000E94D20B609334027093350280933602D8
:101BE0009093370281E0809372018091340280FFEC
:101BF00004C086958F730C94720D08958091340201
:101C000086958F738F5F893108F081E00C94720D97
:101C1000CF93DF9300D000D0CDB7DEB790913402E0
:101C2000892F8E7F90FF81608093340280913402EF
:101C300090913502A0913602B091370289839A8340
:101C4000AB83BC83BC01CD010E94D60B80913402D2
:101C500080FF0AC086958F730F900F900F900F90A2
:101C6000DF91CF910C94720D109272019FEFA0E75B
:101C7000B2E09150A040B040E1F700C000000F90EA
:101C80000F900F900F90DF91CF910C94000CCF9399
:101C9000C82F80917001909171010E94D91DEC2F85
:101CA000F0E0EB54F94FE491E817190609F010F54C
:101CB0000E94CD1D9093710180937001E0916F019E
:101CC000F0E0E754F94F449180913402881F88274F
:101CD000881F90913502292F220F97FB992790F9A1
:101CE00060913602822B0E94210C80916F018F5FE0
:101CF00080936F01CF910895CF93C82F80916D018C
:101D000090916E010E94D91DEC2FF0E0EE54F94F36
:101D1000E491E817190609F0E8F40E94CD1D9093AC
:101D20006E0180936D01409137026091360280917F
:101D30006B0190916C010E94210C80916B0190913C
:101D40006C01019668E671E00E94D52A90936C01BF
:101D500080936B01CF910895CF92DF92EF92FF9223
:101D60000F931F93CF93C82F8091690190916A01BF
:101D70000E94D91DEC2FE695F0E0EE54F94FE49166
:101D8000E817190609F0C8F50E94CD1D90936A0165
:101D9000809369018CE3E82E82E0F82E10E000E0E9
:101DA00098E6C92EDD24D394809167019091680153
:101DB000800F911FB6010E94D52A970140913702EA
:101DC000609136020E944F0B085F1F4F83E0E80EC0
:101DD000F11C003581E0180739F70E94000C809152
:101DE000670190916801C0FF10C00196B6010E9482
:101DF000D52A9093680180936701CF911F910F912D
:101E0000FF90EF90DF90CF9008950197F2CFAF92BF
:101E1000BF92CF92DF92EF92FF920F931F93CF93D7
:101E2000DF93C82FDD24DA9480FD02C0DD24D39433
:101E300080916501909166010E94D91DC695EC2F95
:101E4000F0E0E155F94FE491E817190611F008F0B8
:101E500053C00E94CD1D9093660180936501CCE331
:101E6000D2E010E000E097E0A92EB12C1982188290
:101E70001A8287E0E82EF12CC12C809164018C0D30
:101E800087FD865D082E000C990B80179107E9F4F9
:101E9000209137022E9DC0012F9D900D1124B50178
:101EA0000E94E92A462F80913402881F8827881FC4
:101EB00090913502592F550F97FB992790F99E0164
:101EC00060913602852B0E944F0BCD0C81E0E81A01
:101ED000F10899F60F5F1F4F23960A32110531F66C
:101EE0000E94000C8091640191E0D91212C081110E
:101EF0000EC089E280936401DF91CF911F910F9111
:101F0000FF90EF90DF90CF90BF90AF9008958150F9
:101F1000F1CF90E00196B8010E94E92AEBCFBF9281
:101F2000CF92DF92EF92FF920F931F93CF93DF93A5
:101F3000CDB7DEB7CE57D1090FB6F894DEBF0FBECE
:101F4000CDBF182F80916201909163010E94D91D2D
:101F5000E12FF0E0E455F94FE491E817190611F08C
:101F600008F07AC00E94CD1D9093630180936201B6
:101F70008E010F5F1F4FF12CE12C6801D8011196E3
:101F80001C9211971C9212961C92B12C90910001F8
:101F900080916101B99E800D11248A320CF089E292
:101FA00087FD80E0082E000C990B8E159F05A1F48B
:101FB00080913402881F8827881F90913502592FFD
:101FC000550F97FB992790F998014091370260913E
:101FD0003602852B0E944F0BB394B7E0BB12D6CFCD
:101FE000EFEFEE1AFE0A0D5F1F4FFAE2EF16F10453
:101FF00029F62CE332E009E010E05AE2E52EF12C5C
:10200000C801B7010E94E92AFC01EE0FFF1FE80F8B
:10201000F91FEC0DFD1D8181D90111968C9311974B
:1020200080818C93828112968C930F5F1F4F2D5F5E
:102030003F4F0333110521F70E94000C90910001DE
:10204000809161019130E9F48A3FBCF489EF80937B
:1020500061018FEF80930001C258DF4F0FB6F894F3
:10206000DEBF0FBECDBFDF91CF911F910F91FF90CB
:10207000EF90DF90CF90BF900895815080936101E1
:10208000EBCF81332CF080E38093610181E0E2CFDC
:102090008F5FF4CFCF93DF9380915F0190916001C8
:1020A0000E94D91D883E934028F10E94CD1D909337
:1020B000600180935F0180915D0190915E010196C6
:1020C0008170992790935E0180935D01CCE3D2E00B
:1020D0009E01409137026091360290E080E00E94BC
:1020E0004F0B239682E0CA3BD80791F7DF91CF913F
:1020F0000C94000CDF91CF91089580917201882398
:1021000071F18091340286958F739EE3980F9F73CF
:10211000943018F482500C94470E9AE3980F9F73F2
:10212000933018F486500C947C0E97E3980F9F73AD
:10213000963018F489500C94AC0E91E3980F9F736D
:10214000963018F48F500C94070F9BE2980F9F73F2
:10215000933018F485510C948F0F0C944A10089505
:1021600090937901809378010895E0917801F0913E
:102170007901309721F00190F081E02D099480E001
:102180000895E0917801F0917901309721F0028073
:10219000F381E02D09940895E0917801F09179019F
:1021A000309721F00480F581E02D09940895209165
:1021B0007601309177012817390771F090937701F4
:1021C00080937601E0917801F0917901309721F0C8
:1021D0000680F781E02D09940895209174013091D3
:1021E00075012817390771F0909375018093740178
:1021F000E0917801F0917901309721F00084F18528
:10220000E02D0994089508950C9403110E94C41DB3
:102210000E94E2090E948E1E0E942D220C94CA0D7B
:102220005F926F927F928F929F92AF92BF92CF9266
:10223000DF92EF92FF920F931F93CF93DF9300D023
:1022400000D00F92CDB7DEB70E94460A9BE7A92EB9
:1022500091E0B92E10E000E088248394912C502E58
:10226000802F0E940B0B7C01F501C190D1905F0182
:10227000C816D90609F45DC08091070281FD0E944D
:10228000140B90E080E0CE24DF243401082E02C03D
:10229000660C771C0A94E2F7960126213721232B3E
:1022A00009F442C089835A82E620F72081E0EF28B2
:1022B00009F480E08B830E94CD1D8160782F9D837F
:1022C0008C8349815A816B818D810E94C511000FD9
:1022D000111FF801E558FE4F80819181682679260B
:1022E000718260820E943B210E94B51090917A0118
:1022F0008917B1F10E94B51080937A010F900F9069
:102300000F900F900F90DF91CF911F910F91FF9041
:10231000EF90DF90CF90BF90AF909F908F907F9085
:102320006F905F900C94540701968C30910509F0E2
:10233000ACCF0F5F1F4F0430110509F090CF8FEF26
:1023400089838A831B820E94CD1D8160782F9D83A3
:102350008C8349815A816B818D810E94C511C2CFC6
:102360000F900F900F900F900F90DF91CF911F91D2
:102370000F91FF90EF90DF90CF90BF90AF909F9024
:102380008F907F906F905F900895CF93DF93CDB73C
:10239000DEB72B970FB6F894DEBF0FBECDBF4F83CD
:1023A000588769877A878B871E8285E0FE0137967A
:1023B000DE01119601900D928A95E1F749815A81CB
:1023C0006B817C818D819E812B960FB6F894DEBF48
:1023D0000FBECDBFDF91CF910C945C18882309F418
:1023E000D8C0823871F40E94B51081FDD2C089E353
:1023F0000E94011C0E94CB1C89E30E943E1C0C948D
:10240000CB1C833859F40E94B51080FDC2C083E50F
:102410000E94011C0E94CB1C83E5EFCF843859F445
:102420000E94B51082FDB5C087E40E94011C0E9485
:10243000CB1C87E4E2CF9CEF980F913A18F40E94EE
:10244000011CDDCF90E2980F983050F4877091E036
:1024500001C0990F8A95EAF7892F0E94821CCFCF7D
:102460009BE5980F933070F4853A31F0863A39F055
:1024700083E890E00C94D71081E890E0FBCF82E8ED
:1024800090E0F8CF98E5980F953108F082C0883A2F
:1024900009F440C0893A09F440C08A3A09F440C0BE
:1024A0008B3A09F440C08C3A09F440C08B3B09F4E4
:1024B00040C08C3B09F440C08D3A09F440C0803BD9
:1024C00009F440C08E3A09F440C08F3A09F440C084
:1024D000813B09F440C0823B09F440C0833B09F4CE
:1024E00040C0843B09F440C0853B09F440C0863BB2
:1024F00009F440C0873B09F440C0883B09F440C060
:10250000893B09F440C08A3B09F440C090E080E078
:102510000C94ED1082EE90E0FBCF89EE90E0F8CFC6
:102520008AEE90E0F5CF85EB90E0F2CF86EB90E07D
:10253000EFCF83EB90E0ECCF84EB90E0E9CF87EB3B
:1025400090E0E6CF8CEC90E0E3CF8DEC90E0E0CF34
:1025500083E891E0DDCF8AE891E0DACF82E991E08B
:10256000D7CF84E991E0D4CF81E292E0D1CF83E26A
:1025700092E0CECF84E292E0CBCF85E292E0C8CF6A
:1025800086E292E0C5CF87E292E0C2CF8AE292E093
:10259000BFCF0895882309F44BC0823871F40E949C
:1025A000B51081FF45C089E30E94011C0E94CB1C2D
:1025B00089E30E943E1C0C94CB1C833859F40E9482
:1025C000B51080FF35C083E50E94011C0E94CB1C22
:1025D00083E5EFCF843859F40E94B51082FF28C0FC
:1025E00087E40E94011C0E94CB1C87E4E2CF9CEF91
:1025F000980F913AF0F290E2980F983050F487706B
:1026000091E001C0990F8A95EAF7892F0E94881CF2
:10261000D2CF9BE5980F933020F490E080E00C94AB
:10262000D710885A853120F490E080E00C94ED10AA
:102630000895882321F00E94821C0C94CB1C0895DD
:10264000882321F00E94881C0C94CB1C08958F9243
:102650009F92AF92BF92DF92EF92FF920F931F93E0
:10266000CF93DF9300D000D00F92CDB7DEB77C01BF
:102670006D837983FC01058102950F701281111120
:102680000E94A11C0E94FA1BD82E882371F01123EE
:10269000A1F08D81805E883080F082E00E94E41B92
:1026A0000E94FA1B91E0D82ED926E981E295EF70BD
:1026B000F0E0E859F44D0C94FD2AD12CF6CF0981B5
:1026C0000F70F981F07F11F00295007F1123B1F0B6
:1026D000002361F08D81805E883018F02D812111FA
:1026E00009C0802F0E94821C0E94CB1C8D810E94F9
:1026F000EE1115C0802F0E94931CF6CF8D810E9491
:10270000CA12002361F08D81805E883018F03D810F
:10271000311129C0802F0E94881C0E94CB1CDD2013
:1027200009F4F3C10E94D71B80FDEFC1F7011282AB
:102730000E94D11B0E941A1AC7010E9496150E947E
:10274000D11B0F900F900F900F900F90DF91CF91B2
:102750001F910F91FF90EF90DF90BF90AF909F90EF
:102760008F900C943C1A802F0E94991CD6CF4981DF
:102770004F70B42E5981507F503219F0B29480EFCF
:10278000B8228D81882369F0813029F1112369F104
:10279000002359F0F701858180FFA8CF8F708583D2
:1027A00004C0112361F0011104C08B2D0E94191384
:1027B000B6CF8B2D0130D1F70E94B51CB0CF0111DF
:1027C00006C00E94B81C8B2D0E942013A8CF013098
:1027D00009F4A5CFF6CF112321F0063008F09FCFE2
:1027E000E4CF053008F09BCFEECF002361F38D815D
:1027F0000E94CA1294CF898186958695837069F06C
:10280000813009F08CCF8D8199819370111102C0B4
:1028100090E080E00E94ED1082CF8D8199819370CD
:10282000111102C090E080E00E94D71078CF8D8116
:10283000112329F00E9449200E94302170CF0E946C
:10284000B120FACF8981837009F05FC0111167CF81
:102850002D81229526952770220F220F8D818F7052
:1028600090E0B0E0A0E04C015D01022E04C0880CB5
:10287000991CAA1CBB1C0A94D2F7FD8160E070E091
:10288000CB01F4FF0FC06FE070E080E090E004C087
:10289000660F771F881F991F2A95D2F7609570954C
:1028A0008095909529812695269523702D83223039
:1028B000B1F0233019F19B01AC01282939294A29AB
:1028C0005B2929833A834B835C833D8169817A81CB
:1028D0008B819C813130B1F00E94A71920CF9B01E0
:1028E000AC01282939294A295B2929833A834B835A
:1028F0005C83CA01B9010E94D11911CF0E94A719A6
:10290000C501B4010E947D190ACF8695112311F0EB
:1029100089818170882309F402CF2D812295269523
:102920002770220F220F8D818F7090E0B0E0A0E021
:102930004C015D01022E04C0880C991CAA1CBB1C12
:102940000A94D2F73D8160E070E0CB0134FF0FC004
:102950006FE070E080E090E004C0660F771F881F92
:10296000991F2A95D2F76095709580959095498129
:102970004695469543704D834230B1F0433019F18E
:102980009B01AC01282939294A295B2929833A83EB
:102990004B835C833D8169817A818B819C8131305D
:1029A000B1F00E94AD1ABBCE9B01AC012829392998
:1029B0004A295B2929833A834B835C83CA01B90185
:1029C0000E94D71AACCE0E94AD1AC501B4010E9474
:1029D000831AA5CE3D81323F09F447C080F4303FD1
:1029E00079F1313FD9F1832F805E8031D0F011230E
:1029F00009F456C001117ACE89818F7133C04D819F
:102A0000433FD1F1443F99F7112309F43FC0898135
:102A10008F7189830E941A1A63E089810E94DB1BEF
:102A20007ECE5D815F705D8389818F71112321F07E
:102A30000E941A1A8D81BACE0E943C1A8D81C4CE92
:102A4000112341F0053008F06ACE89818F710E9410
:102A5000611A65CE063008F062CEF7CF89818F719A
:102A6000112339F00E941A1A5ACE89818F711123CD
:102A7000C9F30E943C1A53CE112329F089818F712A
:102A80000E94051A4CCE0E94FB1949CE81E00E949B
:102A9000E41B023008F443CE82E00E94E41B3FCEE8
:102AA0000111A5CE89818F71E4CF49814F706D816D
:102AB000C7010E947B050E94F61831CE11112FCE5E
:102AC000E981EF70E983E23099F028F4E1110DC05B
:102AD0000E943F2224CEF981F33069F0F43009F0EE
:102AE0001ECE8D810E94A7221ACE0E94572217CE99
:102AF0000E94702214CE0E94842211CE49814F7010
:102B00006D81C7010E9456070ACE0F900F900F905B
:102B10000F900F90DF91CF911F910F91FF90EF9049
:102B2000DF90BF90AF909F908F9008950F931F9369
:102B3000CF93DF93EC018B819C81892B29F08881D5
:102B4000998189238F3F29F4DF91CF911F910F91B4
:102B50000895CE010E94A6058823B1F3688179818A
:102B60008A810E94A71B8C010E94011B0E9472197E
:102B7000B801CE01DF91CF911F910F910C942713D3
:102B80000E94A11C0E94B21C0E94741C0E94CB1CBB
:102B90000E9421220E94302190E080E00E94D71004
:102BA00090E080E00C94ED100E94901C0C94C015F5
:102BB0000E949B1B282F892F82958F70903C80F458
:102BC0008A30B0F4843020F4823090F480E00895AC
:102BD0008630E1F781E0203E88F0213FB9F70EC052
:102BE0008C3011F08F3091F793FB882780F908958E
:102BF00081E0203F39F018F4203E40F70895243F4B
:102C000029F7FCCF0895CF93DF9300D000D00F9227
:102C1000CDB7DEB70F900F900F900F900F90DF9110
:102C2000CF910895CF93DF9300D000D000D0CDB7DF
:102C3000DEB726960FB6F894DEBF0FBECDBFDF918C
:102C4000CF9108951F93CF93DF93E091840116E015
:102C5000809185018E1304C0DF91CF911F9108955B
:102C6000CE2FD0E01E9FF0011124EA57FE4F408185
:102C7000518162817381848195810E941216FE01C7
:102C80003196E770E5CF4091B6015091B701609160
:102C9000B8017091B9018091BA019091BB010C9477
:102CA00012161F93CF93DF938091BB01807FC1F4F5
:102CB0008091B8018823A1F080918401C0918501A1
:102CC0006091B6017091B7014091B9015091BA017C
:102CD000D62FD723DA01A095B09516E0C81304C00B
:102CE000DF91CF911F91089590E04115510511F0AA
:102CF000DF3F31F401968770F1CF2A0F3B1F17C0D9
:102D0000189FF001199FF00D1124EA57FE4F218101
:102D10002713F0CF20812613EDCF22812111EACF96
:102D2000238134812417350740F3241B350B283CBD
:102D3000310500F72091BB012F7020612093BB016A
:102D400026E0289FF001299FF00D1124E557FE4F42
:102D500080818F708061808386EB91E00E94961560
:102D6000DF91CF911F910C9422169F92AF92BF9248
:102D7000CF92DF92EF92FF920F931F93CF93DF9347
:102D8000CDB7DEB72B970FB6F894DEBF0FBECDBF21
:102D90008C0185E0F801DE01179601900D928A956D
:102DA000E1F7D8014C9111965C9111971296EC9035
:102DB00012978091B9019091BA01009709F46BC103
:102DC0002091B6013091B701632F62236F3F09F460
:102DD00062C11396CD90DC909090B801992009F4CF
:102DE000F8C0C816D90608F43FC0F601E81BF90B75
:102DF000CF01FF24F394883C910508F0F12C86EB79
:102E0000A82E81E0B82E8091BB01982F907FFF20E3
:102E100009F4B7C0911180C0FE2C35132AC02413C9
:102E200028C0E11026C08F7080618093BB010E9492
:102E30004316C5010E9496158091BB01D8011596D5
:102E40008C938F2D2B960FB6F894DEBF0FBECDBF9F
:102E5000DF91CF911F910F91FF90EF90DF90CF9076
:102E6000BF90AF909F900895809590958C0D9D1D7B
:102E7000C0CFCD2829F0842F85238F3F09F019C1B9
:102E800080E0B82FB170DB2EE091840120918501A4
:102E900036E080FD1CC0EE20A1F28091BB01816074
:102EA0008093BB01F12CCDCF8E2F90E03E9FF0019F
:102EB0001124EA57FE4F6181651306C060816413D7
:102EC00003C062816E11E7CFFC013196E770E21317
:102ED000EBCF4F8358878F8198850E949B1B292FAA
:102EE00022952F70903260F0225F2F70223078F49C
:102EF0009F7051F0F8019581907F31F4D12C0AC078
:102F00009F7011F08823D1F3805E8830B8F3C80138
:102F10000E949615FD2C95CF351306C0241304C0CE
:102F2000D801EE2009F47BC04F8358878F819885A4
:102F30000E94D815882309F4B8C0EE2009F4B5C062
:102F40008091BB01803270F02091B6013091B701C1
:102F50003A8329831B82DD82CC828E83CE01019647
:102F60000E94961586E0F801A6EBB1E001900D9263
:102F70008A95E1F70E9451160E944316FF24F394AC
:102F800060CF911113C07C2DDB86CA866E2D8B8598
:102F90000E94031686EB91E00E94961586E0F501EB
:102FA00011928A95E9F70E9443164BCF3513BCCF97
:102FB0002413BACFE110B8CFD80115968C93C8016D
:102FC0000E94961586E0F50111928A95E9F7F92C91
:102FD00038CFC816D90688F1B601681B790BCB012A
:102FE000F12C883C910508F047C0FE2CEE2009F436
:102FF0005CC0351330C024132EC08091BB0180FD0E
:1030000021C0982F907FF1F0D80115968C931597D9
:10301000903F39F0982F907F905F8F70892B159695
:103020008C93C8010E94961586E0F801A6EBB1E0EA
:1030300001900D928A95E1F7B6CF809590958C0D11
:103040009D1DCECF86E0F801A6EBB1E001900D9278
:103050008A95E1F7F6CE4F8358878F8198850E9435
:10306000D81581117FCF8091BB0181608093BB0116
:10307000C8010E949615E5CE7C2DDB86CA866E2D92
:103080008B850E94031686E0E6EBF1E0DF011D92DE
:103090008A95E9F788CFEE2041F04F8358878F81DA
:1030A00098850E94D81581115DCFC8010E949615A0
:1030B00065CF81E08E25E5CE1F93CF93DF93CDB70B
:1030C000DEB72C970FB6F894DEBF0FBECDBF4F838F
:1030D000588769877A878B879C87CE0107960E94DD
:1030E000B516882369F08A859B85892B39F04F8135
:1030F0005885842F85238F3F09F071C016E05FC08B
:1031000086E0FE013796DE01119601900D928A95B8
:10311000E1F78A859B85892B89F388859F8189239F
:103120008F3F61F32091850130E0C90101968770DE
:103130009927409184014817190671F40E94D4150B
:10314000109285011092840186E0E6EBF1E0DF0148
:103150001D928A95E9F7D2CF96E0929FD001939F76
:10316000B00D1124AA57BE4FFE01319601900D9269
:103170009A95E1F7809385010E942216BFCF819F27
:10318000C00111248A579E4F0E94B5168823E9F08A
:10319000E09184011E9FF0011124EA57FE4F408107
:1031A000518162817381848195810E941216809180
:1031B000840190E001968770992780938401809123
:1031C0008401909185018913DACF2C960FB6F8947B
:1031D000DEBF0FBECDBFDF91CF911F9108956985EE
:1031E0007A858B859C850E94121688CFEF92FF927C
:1031F0000F931F93CF93DF938C01892B89F0F12CD0
:10320000EE24E394E8012196F8018491843709F4CF
:1032100057C0A0F4823009F43EC048F48130D1F0A8
:10322000DF91CF911F910F91FF90EF9008959CEF48
:10323000980F9037A8F70E94EE110AC0853709F45D
:103240004CC09CE7980F903758F78F770E94CA12AE
:103250008E0116C00E5F1F4FFE01849190E2980F01
:10326000983060F48770FE2D01C0FF0F8A95EAF751
:103270008F2F0E94A41C0E94CB1C02C00E94EE1142
:103280008F2D815008F4BECFEFE9FFE03197F1F7C1
:1032900000C00000F6CF0E5F1F4FFE01849190E248
:1032A000980F983050F48770FE2D01C0FF0F8A955B
:1032B000EAF78F2F0E94AA1CDECF0E94CA12E0CF2D
:1032C0000E5F1F4FFE01C491C150D0F28FE99FE005
:1032D0000197F1F700C00000F7CF0E5F1F4FFE010E
:1032E000F490CECF08956093DE017093DF01809358
:1032F000E0019093E1010C94C015CF93DF9300D0CF
:1033000000D0CDB7DEB769837A838B839C838091AD
:10331000DE019091DF01A091E001B091E1012981EE
:103320003A814B815C81822B932BA42BB52B80930C
:10333000DE019093DF01A093E001B093E1010F90D3
:103340000F900F900F90DF91CF910C94C015CF93F9
:10335000DF9300D000D0CDB7DEB769837A838B834B
:103360009C838091DE019091DF01A091E001B091FA
:10337000E10129813A814B815C8182239323A4233B
:10338000B5238093DE019093DF01A093E001B09319
:10339000E1010F900F900F900F90DF91CF910C945F
:1033A000C015CF93DF9300D000D0CDB7DEB76983CF
:1033B0007A838B839C838091DE019091DF01A091C1
:1033C000E001B091E10129813A814B815C81822742
:1033D0009327A427B5278093DE019093DF01A09364
:1033E000E001B093E1010F900F900F900F90DF91EB
:1033F000CF910C94C0151092DA011092DB0110925B
:10340000DC011092DD010C94C01541E050E060E059
:1034100070E004C0440F551F661F771F8A95D2F7CE
:103420004093DA015093DB016093DC017093DD017E
:103430000C94C015282F81E090E0A0E0B0E004C01B
:10344000880F991FAA1FBB1F2A95D2F74091DA0156
:103450005091DB016091DC017091DD01842B952B93
:10346000A62BB72B8093DA019093DB01A093DC01AC
:10347000B093DD010C94C01541E050E060E070E0D5
:1034800004C0440F551F661F771F8A95D2F74095D9
:103490005095609570958091DA019091DB01A09133
:1034A000DC01B091DD0184239523A623B72380930B
:1034B000DA019093DB01A093DC01B093DD010C9461
:1034C000C015282F81E090E0A0E0B0E004C0880F94
:1034D000991FAA1FBB1F2A95D2F74091DA0150917C
:1034E000DB016091DC017091DD0184279527A6271F
:1034F000B7278093DA019093DB01A093DC01B093AE
:10350000DD010C94C015CF93DF9300D000D0CDB770
:10351000DEB769837A838B839C838091DA019091F3
:10352000DB01A091DC01B091DD0129813A814B8161
:103530005C81822B932BA42BB52B8093DA01909383
:10354000DB01A093DC01B093DD010F900F900F9091
:103550000F90DF91CF910C94C015CF93DF9300D0E3
:1035600000D0CDB7DEB769837A838B839C8380914B
:10357000DA019091DB01A091DC01B091DD0129819C
:103580003A814B815C8182239323A423B5238093CA
:10359000DA019093DB01A093DC01B093DD010F9081
:1035A0000F900F900F90DF91CF910C94C015CF9397
:1035B000DF9300D000D0CDB7DEB769837A838B83E9
:1035C0009C838091DA019091DB01A091DC01B091A4
:1035D000DD0129813A814B815C8182279327A427D1
:1035E000B5278093DA019093DB01A093DC01B093BF
:1035F000DD010F900F900F900F90DF91CF910C9401
:10360000C0150895E82F2CE0929FE00D11248E2F15
:10361000877041E001C0440F8A95EAF7E695E69588
:10362000E69585E0E89FF0011124E454FE4F30E078
:1036300020E070E05191DF011197CB01022E02C012
:10364000969587950A94E2F7817081958527842362
:1036500085278C932F5F3F4F2530310559F708950B
:10366000E82F2CE0929FE00D11249E2F9770E69595
:10367000E695E69585E0E89FF0011124E454FE4FBD
:1036800050E040E080E0219130E0092E02C0369504
:1036900027950A94E2F721703327042E01C0220FE8
:1036A0000A94EAF7822B4F5F5F4F4530510559F777
:1036B0000895BF92CF92DF92EF92FF920F931F93E4
:1036C000CF93DF938C01C090DA01D090DB01E090C2
:1036D000DC01F090DD018091DE019091DF01A0918D
:1036E000E001B091E101C82AD92AEA2AFB2ACFE1F8
:1036F000D0E0BC2ED701C6010C2E04C0B695A7950C
:10370000979587950A94D2F780FD0EC0219788F788
:10371000B12C8B2DDF91CF911F910F91FF90EF90E6
:10372000DF90CF90BF900895B8018C2F0E9473074F
:10373000019761F3EECFCF93DF93D82FC92F0E946B
:10374000591B6D2F7C2FDF91CF910C9473071F9322
:10375000CF93DF93162FD72F90918301992339F0C0
:10376000862F972FDF91CF911F910C949B1B88235D
:1037700091F0862F972F0E94591BC82F682F812FF9
:103780009D2F0E94021B612F7D2F8C2FDF91CF91E7
:103790001F910C947307862F972F0E94301BC82F00
:1037A000F2CF8091E2018595859585950895809168
:1037B000E2018770089598E0899F90011124622B9F
:1037C0006093E2010C941A1A9091E201809589238A
:1037D0008093E201282F277061F4282F082E000C17
:1037E000330B9217130629F08595859585950C94D2
:1037F0003C1A08959091E201977081E009F480E00D
:103800000895909113019923E1F09091BE0297FFE2
:1038100018C0E82FE695E695E695EF3139F120914D
:10382000010130910201E20FF32FF11D877021E0B9
:1038300030E001C0220F8A95EAF78181822B8183D3
:1038400008952091010130910201F90132969FEF14
:1038500040E05191851751F09F3F19F4511101C07B
:10386000942F4F5F4E31A9F79F3F09F40895290F18
:10387000311D97FD3A95F9018283089590911301C6
:10388000992301F19091BE0297FF1CC0E82FE695A5
:10389000E695E695EF3139F1209101013091020171
:1038A000E20FF32FF11D877021E030E0A90102C083
:1038B000440F551F8A95E2F7CA01809591818923AB
:1038C000818308952091010130910201F90132961E
:1038D000205E3F4F9191891303C0DF0111971C9225
:1038E000E217F307B9F7089581E090E0E091010154
:1038F000F0910201E80FF91F1082019680329105C4
:10390000A9F7089590910602982B909306020895C6
:10391000982F90958091060289238093060208953E
:1039200010920602089590910502982B909305023B
:103930000895982F90958091050289238093050220
:10394000089510920502089590910402982B909387
:1039500004020895982F9095809104028923809302
:10396000040208951092040208958093E3010895DB
:103970001092E30108952091010130910201F901B3
:103980003196205E3F4F80E0919191118F5FE21759
:10399000F307D1F70895E0910101F09102018091C0
:1039A00006028083E0910101F091020180819091F3
:1039B0000502892B8083E0910101F0910201808151
:1039C00090910402892B80839091E301992361F007
:1039D000E0910101F09102018081892B80830E9496
:1039E000BB1C81111092E3018091010190910201B1
:1039F0000C94C1106DEE7EEF90E080E00E94352BBC
:103A000060E082E090E00E94172B60E083E090E0AD
:103A10000E94172B60E084E090E00E94172B60E08A
:103A200085E090E00E94172B60E086E090E00E9425
:103A3000172B40E050E0BA0188E090E00C94292B6D
:103A400090E080E00E94112B9C0181E02D3E3E4FD2
:103A500009F080E0089582E090E00C94032B682F39
:103A600082E090E00C94172B83E090E00C94032B01
:103A7000682F83E090E00C94172B84E090E00C9486
:103A8000032B682F84E090E00C94172B86E090E0E5
:103A90000C94032B682F86E090E00C94172B8091F8
:103AA000C502843051F11092080288E190E020E4D0
:103AB0000FB6F894A895809360000FBE2093600025
:103AC00080E00E941E0780E00E94540783B7817F38
:103AD000846083BF83B7816083BF7894889583B700
:103AE0008E7F83BF0FB6F894A8958091600088619F
:103AF00080936000109260000FBE089508950895AD
:103B0000CF930E947E1D0E94460A0E947F1DC0E046
:103B10008C2F0E940B0B892B31F4CF5FC430C1F77F
:103B200080E0CF91089581E0FCCF0E94D4150E94DF
:103B30002D220E94B5100C9454071F921FB61F929D
:103B400011248F939F93AF93BF93809108028111AB
:103B500013C08091BA029091BB02A091BC02B091B7
:103B6000BD024196A11DB11D8093BA029093BB0284
:103B7000A093BC02B093BD02BF91AF919F918F9172
:103B80001F901FBE1F90189582E084BD93E095BDE5
:103B90009AEF97BD80936E0008952FB7F8948091A7
:103BA000BA029091BB02A091BC02B091BD022FBF9E
:103BB0000895CF92DF92EF92FF929C014FB7F89455
:103BC0008091BA029091BB02A091BC02B091BD025B
:103BD0004FBF6C017D01EE24FF24A90170E060E07D
:103BE000C416D506E606F70638F0821B930BFF9045
:103BF000EF90DF90CF9008950197F7CF1F921FB6F7
:103C00001F9211248F939F93AF93BF938091BA0219
:103C10009091BB02A091BC02B091BD020196A11D82
:103C2000B11D8093BA029093BB02A093BC02B093E3
:103C3000BD02BF91AF919F918F911F901FBE1F90AA
:103C400018950E94AC26F8942FEF87EA91E6215050
:103C500080409040E1F700C0000087E090EBDC017D
:103C60008093CE029093CF02A093D002B093D10262
:103C700088E19CE00FB6F894A895809360000FBE91
:103C800090936000FFCFAF92BF92CF92DF92EF92FE
:103C9000FF920F931F93CF93C0E0AA24A394B12C5B
:103CA000E82EF12C8C2F0E940B0B6C0110E000E031
:103CB000C501002E02C0880F991F0A94E2F78C21DB
:103CC0009D21892B99F0602F7C2F80E00E9457075F
:103CD000E816F90659F481E0CF911F910F91FF90FA
:103CE000EF90DF90CF90BF90AF9008950F5F1F4F80
:103CF0000C301105E9F6CF5FC430A1F680E0ECCFBF
:103D0000CF93C82F8CE20E94431E882321F08C2F72
:103D1000CF910C94431E80E0CF910895CF93DF9311
:103D200000D000D0CDB7DEB70E94201D811102C0A7
:103D30000E94FA1C95E6998308C00E94460A8FE308
:103D40009CE90197F1F700C00000A981A150A98367
:103D5000A111F3CF89E20E94801E811110C18AE275
:103D60000E94801E81110E94FA1C85E00E94801E24
:103D700081110E94211E0E942B1D8093070287E063
:103D80000E94801E882371F08BE10E94801E882390
:103D900009F4D1C090910702892F8D7F91FF826035
:103DA00080930702809107020E942F1D0E943D1DF3
:103DB00090E09093BF028093BE0280EE0E94801E2E
:103DC000882341F09091BE02892F8E7F90FF816001
:103DD0008093BE0289E30E94801E882341F0909167
:103DE000BE02892F8D7F91FF82608093BE0282EE9A
:103DF0000E94801E882341F09091BE02892F8B7F04
:103E000092FF84608093BE0286EE0E94801E88230B
:103E100041F09091BE02892F877F93FF8860809345
:103E2000BE0283EE0E94801E882341F09091BE0264
:103E3000892F8F7E94FF80618093BE0285E30E946C
:103E4000801E882341F09091BE02892F8F7D95FFBF
:103E500080628093BE0281E30E94801E882341F02D
:103E60009091BE02892F8F7B96FF80648093BE0263
:103E700081E10E94801E882341F09091BE02892F2B
:103E800097FB87F980588093BE028091BE020E9402
:103E9000411D87E20E94801E89838EE10E94801E60
:103EA000882319F0B981B260B9838FE10E94801E26
:103EB000882319F029812460298380E20E94801ED2
:103EC000882319F039813860398381E20E94801E8D
:103ED000882319F049814061498382E20E94801E53
:103EE000882319F059815062598383E20E94801E11
:103EF000882319F089818064898384E20E94801E6E
:103F00008823B1F199819068998389810E94381D35
:103F10003981232F30E050E040E029833A834B83FE
:103F20005C83CA01B9010F900F900F900F90DF9141
:103F3000CF910C9473198EE00E94801E882339F073
:103F400090910702892F8B7F92FF846029CF80E1B7
:103F50000E94801E90910702882329F0892F877F75
:103F600093FF88601DCF892F8E7F90FF816018CFCF
:103F7000A981A111CACF0E94341D282FCBCF0F9049
:103F80000F900F900F90DF91CF91089580910B02C9
:103F900080FF12C06091060185E0689FB001112486
:103FA000759567957595679560387105A8F56115E4
:103FB0007105A1F1862F089581FF09C06091060166
:103FC00085E0689FB001112475956795EDCF6091EC
:103FD000060182FD0AC080910C028823D1F09091E5
:103FE000050160910601891728F085E0689FB001FE
:103FF0001124DACF869FB001112485E0869F9001BD
:10400000879F300D1124692F70E0C9010E94E92AB1
:10401000CBCF65E070E0CECF8FE7089581E00895C3
:1040200080910B0280FF0CC06091040170E07595D7
:104030006795759567956115710549F1862F089506
:1040400081FF06C06091040170E075956795F3CF1C
:104050006091040182FD0BC090910C029923A1F0A4
:104060006091030180910401961738F0682F70E089
:104070006038710500F38FE70895899FC00111240E
:1040800070E00E94E92AF4CF61E070E0D7CF81E0D0
:104090000895803F31F40E94C61F819580930F02DE
:1040A0000895813F19F40E94C61FF8CF823F31F472
:1040B0000E94C61F819580930E020895833F19F4D4
:1040C0000E94C61FF8CF893F29F40E9410208093D8
:1040D000100208958A3F21F40E9410208195F7CFA5
:1040E0008B3F31F40E941020819580931102089536
:1040F0008C3F19F40E941020F8CF843F31F4809156
:104100000D02816080930D020895853F21F4809116
:104110000D028260F7CF863F21F480910D0284600A
:10412000F1CF873F21F480910D028860EBCF883F6B
:1041300021F480910D028061E5CF8D3F31F48091B3
:104140000B02816080930B0208958E3F21F48091D1
:104150000B028260F7CF8F3FB9F780910B0284602A
:10416000F1CF90910E02803F41F480910F0287FDC4
:1041700010920F02992371F00895813F29F48091E4
:104180000F021816ACF3F6CF823F81F497FFF2CFFF
:1041900010920E0280910F0290911002892B909143
:1041A0001102892B49F710920C020895833F19F4EC
:1041B000191674F3DFCF893F39F480911002181675
:1041C000CCF610921002D6CF8A3F29F480911002CB
:1041D00087FFD0CFF6CF8B3F39F48091110287FF54
:1041E000C9CF10921102C6CF8C3F29F480911102E1
:1041F0001816BCF3BFCF843F31F480910D028E7F3F
:1042000080930D02B7CF853F21F480910D028D7F01
:10421000F7CF863F21F480910D028B7FF1CF873F4E
:1042200021F480910D02877FEBCF883F21F48091AC
:104230000D028F7EE5CF8D3F31F480910B028E7F92
:1042400080930B0297CF8E3F21F480910B028D7FDC
:10425000F7CF8F3F09F08ECF80910B028B7FF0CF8D
:104260008DE092E00E94CC100E94CD1D90930A0236
:104270008093090208951F93CF93DF9300D000D05D
:1042800000D0CDB7DEB78091090290910A020E945A
:10429000D91DAC0180910C022091070130E0811101
:1042A00006C0209108019AE0299F9001112442172D
:1042B000530788F020910E02A0910F02A98310915C
:1042C0001002B0911102BE8321110FC09A2F912BC1
:1042D0009B2B09F0B2C026960FB6F894DEBF0FBE36
:1042E000CDBFDF91CF911F9108958F3F19F08F5F60
:1042F00080930C02121624F40E94C61F80930E02B3
:1043000080910E0287FF05C00E94C61F8195809391
:104310000E022981121624F40E94C61F80930F02F8
:1043200080910F0287FF05C00E94C61F8195809370
:104330000F0280910E02882309F455C030910F02BC
:104340003D83332309F44FC0282F880F330B440BD0
:10435000550B29833A834B835C83CA01B9010E94C0
:10436000DC2923E333E343E35FE369837A838B83CD
:104370009C8369817A818B819C810E94402A698318
:104380007A838B839C8369817A818B819C810E9453
:10439000A42960930E028D81082E000C990BAA0BA4
:1043A000BB0B89839A83AB83BC83BC01CD010E9484
:1043B000DC2923E333E343E35FE369837A838B837D
:1043C0009C8369817A818B819C810E94402A6983C8
:1043D0007A838B839C8369817A818B819C810E9403
:1043E000A42960930F02111624F40E9410208093D8
:1043F00010028091100287FF05C00E941020819555
:10440000809310029E81191624F40E94102080933C
:1044100011028091110287FF05C00E941020819532
:104420008093110226960FB6F894DEBF0FBECDBF63
:10443000DF91CF911F910C9430218F3F09F057CF1E
:1044400068CF85E0EDE0F2E0DF011D928A95E9F7A3
:1044500010920C0210920B0208950E94201D8111EF
:1044600002C00E94FA1C0E94461D982F8093C00231
:10447000817090FF02C0892F86950C941E07809151
:10448000C002982F9695843130F49F5F990F817008
:10449000892B8093C0028091C00281608093C0020A
:1044A0000E944A1D8091C00286950C941E0780913F
:1044B000C002982F9E7F79F082508093C0028E7F39
:1044C00091E009F490E08091C00290FB80F9809324
:1044D000C0020E944A1D8091C00286950C941E075E
:1044E0009091C002892F8E7F90FF81608093C002DF
:1044F0000E944A1D9091C002892F817090FF02C0D6
:10450000892F86950C941E079091C002892F86955D
:104510008F5F8F7791708B30B8F4880F892B8093E1
:10452000C0028091C0028E7F91E009F490E08091FA
:10453000C00290FB80F98093C0020E944A1D8091C6
:10454000C00286950C941E079093C002EACF90910A
:10455000C002292F26952827220F9170922B909325
:10456000C0029E7F21E009F420E08091C00220FB80
:1045700080F98093C0020E944A1D8091C0028695F6
:104580000C941E07809132020895CF93DF9300D0E0
:104590000F92CDB7DEB72091C502243019F523E084
:1045A00029838A839B832093E9008FEF9091E80011
:1045B000815095FD06C095ED9A95F1F700008111A7
:1045C000F5CF8091E80085FF0DC050E040E063E04A
:1045D00070E0CE0101960E9424258091E8008E773C
:1045E0008093E8000F900F900F90DF91CF91089586
:1045F000CF93DF9300D00F92CDB7DEB79C018091AF
:10460000C502843031F582E08983205831093B832B
:104610002A8383E08093E9008FEF9091E800815036
:1046200095FD06C095ED9A95F1F700008111F5CF43
:104630008091E80085FF0DC050E040E063E070E04D
:10464000CE0101960E9424258091E8008E77809308
:10465000E8000F900F900F90DF91CF910895209177
:10466000C5022430F1F422E02093E9002FEF3091CD
:10467000E800215035FD06C035ED3A95F1F7000010
:104680002111F5CF2091E80025FF0BC050E040E05C
:1046900065E070E00E9424258091E8008E77809389
:1046A000E8000895CF93DF93D82FC92F8091C502DA
:1046B0008430F1F4909113019923E9F09091BE02B6
:1046C00097FF19C08093E9008FEF9091E800815027
:1046D00095FD06C095E19A95F1F700008111F5CF9F
:1046E0008091E80050E040E060E270E085FD1AC093
:1046F000DF91CF91089581E08093E9008FEF909151
:10470000E800815095FD06C095ED9A95F1F70000FF
:104710008111F5CF8091E80085FFEACF50E040E0BD
:1047200068E070E08D2F9C2F0E9424258091E80086
:104730008E778093E80080E2ED2FFC2FA2E1B2E0BB
:1047400001900D928A95E1F7D3CF8091C402811137
:1047500009C00E94AC260E9409278091E200846073
:104760008093E20008951092C40208950895089578
:104770000C94951D42E061EC81E00E94282642E005
:1047800061EC82E00E94282642E061EC83E00E9416
:10479000282642E261EC84E00C9428268091C7022E
:1047A000893089F148F4823009F494C0833009F4E7
:1047B0004FC0813041F008958A3009F47BC08B30BE
:1047C00009F461C008958091C602813A09F03FC0A2
:1047D0008091E800877F8093E8008091CA029091E1
:1047E000CB02892B61F460E282E192E070E00E94EA
:1047F00073258091E8008B778093E800089560E04E
:1048000090E080E0F3CF8091C602813201F5809183
:10481000CA029091CB02009711F00397C1F48091E6
:10482000E800877F8093E8008091E80082FF0BC05A
:104830008091F100809332028091E8008B77809321
:10484000E8000C945C268091C5028111EDCF08959B
:104850008091C602813AD9F78091CA029091CB0229
:10486000892BA9F78091E800877F8093E8008091E9
:10487000E80080FFFCCF809113018093F1008091CC
:10488000E8008E77DCCF8091C602813201F78091FB
:10489000CA029091CB02892BD1F68091E800877FE4
:1048A0008093E8000E945C268091C80280931301E7
:1048B0000C94D4158091C602813249F68091E800AB
:1048C000877F8093E8000E945C268091C9028093D4
:1048D000330208958091C602813A09F0B8CF8091E1
:1048E000E800877F8093E8008091E80080FFFCCF9C
:1048F00080913302C2CF84B7877F84BF0FB6F8940C
:10490000A89580916000886180936000109260009B
:104910000FBE80E880936100109261000E94041134
:104920000E94AC260E9409278091E2008460809357
:10493000E20078940E9489290E94061189E091E0A2
:104940000E94B0108091C502853029F00E9410119C
:104950000E947D10F7CF0E944F1D8091C3028823D3
:1049600089F30E94801D882369F30E940E25EACFF7
:104970009C01DA01892F992783309105C1F068F4F1
:104980008130910509F445C0029761F48DE690E00D
:1049900029EE38E02D933C93089581329105E1F0A2
:1049A000829739F190E080E030E020E0F3CFC90158
:1049B0009927213059F08230910559F0E5EEF8E061
:1049C000892B81F7849190E09F01E4CFEDECF8E032
:1049D000F9CFE9EBF8E0F6CF643020F7E62FF0E00E
:1049E000EE0FFF1FE05DFE4F2081318189E090E0F6
:1049F000D1CF6430B8F670E0FB01EE0FFF1FE85D29
:104A0000FE4F208131816C5D7E4FFB01808190E003
:104A1000C1CF82E190E026E539E0BCCF80E189BDDD
:104A200082E189BD09B400FEFDCF8091D8008F7D61
:104A30008093D8008091E00082608093E0008091B4
:104A4000E00081FDFCCF0895AF92BF92CF92DF923C
:104A5000FF920F931F93CF93DF936C01EB018A01B9
:104A60000E947B26F82E811123C00115110539F013
:104A7000F80180819181C81BD90BC80ED91EB12CB9
:104A8000A12C2097A9F08091E80085FD22C080919B
:104A9000E8008E778093E80001151105A1F0F80178
:104AA00080819181A80EB91EB182A08285E0F82E86
:104AB0008F2DDF91CF911F910F91FF90DF90CF90BD
:104AC000BF90AF9008950E947B268823D1F2F82EE4
:104AD000EFCFF60181916F018093F1002197FFEFF5
:104AE000AF1ABF0ACECFFC01CB012091CC0230918E
:104AF000CD022617370790F0009729F42091E8009F
:104B00002E772093E80040E0009751F4411108C04F
:104B10008091E80082FF31C080E00895C901F3CFA1
:104B20002091C5022223A9F12530A9F12091E800A6
:104B300023FD2DC02091E80022FDEACF2091E8005E
:104B400020FFE2CF3091F3002091F200009719F09E
:104B50002830310558F041E02830310509F040E0B7
:104B60002091E8002E772093E800CECF419140932A
:104B7000F10001972F5F3F4FE9CF8091C502882355
:104B800041F0853041F08091E80083FFC1CF81E0A2
:104B9000089582E0089583E00895FC01CB012091FF
:104BA000CC023091CD022617370790F0009729F4F8
:104BB0002091E8002E772093E80040E0009751F420
:104BC000411108C08091E80082FF32C080E0089562
:104BD000C901F3CF2091C5022223B1F12530B1F1F3
:104BE0002091E80023FD2EC02091E80022FDEACFAD
:104BF0002091E80020FFE2CF3091F3002091F200F5
:104C0000009719F02830310558F041E0283031057F
:104C100009F040E02091E8002E772093E800CECF05
:104C200044914093F100319601972F5F3F4FE8CFB9
:104C30008091C502882341F0853041F08091E800E1
:104C400083FFC0CF81E0089582E0089583E0089556
:104C5000982F973028F08F708093E90081E00895B5
:104C60009093E900242F762F50E0981731F070913F
:104C7000EC002091ED005091F00021FD02C09F5FFB
:104C8000E8CF3091EB003E7F3093EB003091ED00A8
:104C90003D7F3093ED003091EB0031603093EB00BD
:104CA0007093EC002093ED005093F0002091EE0003
:104CB00027FDE5CF80E008958091C60287FF13C0ED
:104CC0008091E80082FF06C08091E8008B77809396
:104CD000E80004C08091C5028111F2CF089580914F
:104CE000C5028823D9F38091E80080FFF8CF809136
:104CF000E8008E77ECCF2091E4003091E50095E656
:104D0000A9012091EC00822F817020FF06C08091C4
:104D1000E80080FF06C080E008952091E80022FDB1
:104D20001AC08091C502882389F0853089F080916E
:104D3000EB0085FD0FC02091E4003091E5004217A3
:104D40005307F9F29150E1F684E0089582E0089566
:104D500083E0089581E008950E941A270E94222787
:104D6000E0EEF0E0808181608083E8EDF0E080811A
:104D70008F77808319BCA7EDB0E08C918E7F8C93E8
:104D800080818F7E80831092C40208950F931F93B9
:104D9000CF93DF930E941A270E942227C8EDD0E00C
:104DA00088818F77888388818068888388818F7DD8
:104DB000888319BC1092C5021092C1021092C302DE
:104DC0001092C20200EE10E0F80180818B7F808398
:104DD00088818160888342E060E080E00E9428262C
:104DE000E1EEF0E080818E7F8083E2EEF0E0808172
:104DF00081608083808188608083F80180818E7FDC
:104E00008083888180618883DF91CF911F910F918A
:104E10000895E8EDF0E080818F7E8083E7EDF0E09B
:104E200080818160808384E082BF81E08093C402BE
:104E30000C94C626E8EDF0E080818E7F808310928E
:104E4000E20008951092DA001092E10008951F9296
:104E50000F920FB60F9211242F933F934F935F93AE
:104E60006F937F938F939F93AF93BF93EF93FF9332
:104E70008091E10082FF0BC08091E20082FF07C0B9
:104E80008091E1008B7F8093E1000E9488298091CE
:104E9000DA0080FF19C08091D80080FF15C0809192
:104EA000DA008E7F8093DA008091D90080FF94C071
:104EB00080E189BD82E189BD09B400FEFDCF81E0BA
:104EC0008093C5020E94A5238091E10080FF19C054
:104ED0008091E20080FF15C08091E2008E7F809378
:104EE000E2008091E20080618093E2008091D8002E
:104EF00080628093D80019BC85E08093C5020E942F
:104F0000B7238091E10084FF29C08091E20084FFF3
:104F100025C080E189BD82E189BD09B400FEFDCFD5
:104F20008091D8008F7D8093D8008091E1008F7EA2
:104F30008093E1008091E2008F7E8093E200809177
:104F4000E20081608093E2008091C102882309F42D
:104F500049C084E08093C5020E94B8238091E1009B
:104F600083FF29C08091E20083FF25C08091E1008A
:104F7000877F8093E10082E08093C5021092C10296
:104F80008091E1008E7F8093E1008091E2008E7F2E
:104F90008093E2008091E20080618093E20042E031
:104FA00060E080E00E9428268091F0008860809375
:104FB000F0000E94B623FF91EF91BF91AF919F91B6
:104FC0008F917F916F915F914F913F912F910F90B2
:104FD0000FBE0F901F90189519BC1092C5020E9429
:104FE000B32372CF8091E30087FD02C081E0B2CF8E
:104FF00083E0B0CF1F920F920FB60F9211242F9320
:105000003F934F935F936F937F938F939F93AF9350
:10501000BF93CF93DF93EF93FF93D091E900DF70BD
:105020008091EC00C82FC17080FDC0E81092E900AB
:105030008091F000877F8093F00078940E943E2852
:105040001092E9008091F00088608093F000CD2BF1
:10505000CF70C093E900FF91EF91DF91CF91BF91A5
:10506000AF919F918F917F916F915F914F913F9100
:105070002F910F900FBE0F901F9018951F93CF93F5
:10508000DF93CDB7DEB7AA970FB6F894DEBF0FBE99
:10509000CDBF86EC92E0FC0101962091F1002083C7
:1050A00022E08E3C9207B9F70E94CE238091E8005F
:1050B00083FF16C18091C6029091C7029A3008F012
:1050C0000FC1E92FF0E0E858F44D0C94FD2A803828
:1050D00081F0823809F004C18091CA028F708093F8
:1050E000E9008091EB0085FB882780F91092E900A8
:1050F00006C08091C2029091C3029111826090918A
:10510000E800977F9093E8008093F1001092F100FF
:105110008091E8008E77E0C0882309F4CEC0823009
:1051200009F0DEC08091C8028111D1C08091CA020D
:105130008F7009F4D5C08093E9002091EB0020FF27
:10514000C6C0933031F48091EB0080628093EB0015
:10515000BEC09091EB0090619093EB0021E030E0B5
:1051600001C0220F8A95EAF72093EA001092EA0024
:105170008091EB008860EACF8111B2C01091C80223
:105180001F778091E3008078812B8093E3008091EA
:10519000E800877F8093E8000E945C268091E80009
:1051A00080FFFCCF8091E30080688093E30082E081
:1051B000111183E08093C50293C08058823008F0BB
:1051C0008FC08091C8029091C9028C3D23E0920764
:1051D000A1F583E08A838AE289834FB7F894DE01E0
:1051E000139620E03EE051E2E32FF0E050935700A9
:1051F000E49120FF03C0E295EF703F5FEF708E2FC8
:1052000090E0EA30C0F0C7968D939D932F5F2431D4
:1052100059F74FBF8091E800877F8093E8006AE2EA
:1052200070E0CE0101960E9473258091E8008B7793
:105230008093E80055C0C096E7CFAE014F5F5F4F47
:105240006091CA020E94B824BC01892B09F448C0AD
:105250008091E800877F8093E80089819A810E948D
:10526000CD25E3CF8038E1F58091E800877F8093FA
:10527000E8008091C1028093F1004ACF811130C0D3
:105280009091C802923060F58091E800877F80930A
:10529000E8009093C1020E945C268091C10288239D
:1052A00011F084E005C08091E30087FDFACF81E032
:1052B0008093C5020E94BA2313C08091C802813036
:1052C00079F481E0933009F080E08093C30210927A
:1052D000E9008091E800877F8093E8000E945C26C7
:1052E0008091E80083FF0AC08091E800877F809367
:1052F000E8008091EB0080628093EB00AA960FB6E5
:10530000F894DEBF0FBECDBFDF91CF911F910895FE
:105310000895CF938091C5028823A1F0C091E90040
:10532000CF709091EC00892F817090FD80E8C82BA0
:105330001092E9008091E80083FD0E943E28CF7022
:10534000C093E900CF9108950E94AB296894B111F0
:105350000C943A2A08950E941F2A88F09F5798F0CB
:10536000B92F9927B751B0F0E1F0660F771F881F6A
:10537000991F1AF0BA95C9F714C0B13091F00E9484
:10538000392AB1E008950C94392A672F782F88279D
:10539000B85F39F0B93FCCF3869577956795B395AB
:1053A000D9F73EF490958095709561957F4F8F4F1A
:1053B0009F4F0895E89409C097FB3EF4909580951F
:1053C000709561957F4F8F4F9F4F9923A9F0F92FCB
:1053D00096E9BB279395F695879577956795B79549
:1053E000F111F8CFFAF4BB0F11F460FF1BC06F5F2F
:1053F0007F4F8F4F9F4F16C0882311F096E911C041
:10540000772321F09EE8872F762F05C0662371F061
:1054100096E8862F70E060E02AF09A95660F771F75
:10542000881FDAF7880F9695879597F9089557FDA5
:105430009058440F551F59F05F3F71F04795880F02
:1054400097FB991F61F09F3F79F087950895121699
:1054500013061406551FF2CF4695F1DF08C0161645
:1054600017061806991FF1CF8695710561050894F6
:105470000895E894BB2766277727CB0197F908950D
:105480000E94532A0C94C42A0E94B62A38F00E9423
:10549000BD2A20F0952311F00C94AD2A0C94B32A68
:1054A00011240C943A2A0E94172A70F3959FC1F395
:1054B000950F50E0551F629FF001729FBB27F00DC2
:1054C000B11D639FAA27F00DB11DAA1F649F662717
:1054D000B00DA11D661F829F2227B00DA11D621F66
:1054E000739FB00DA11D621F839FA00D611D221F20
:1054F000749F3327A00D611D231F849F600D211D04
:10550000822F762F6A2F11249F5750409AF0F1F086
:1055100088234AF0EE0FFF1FBB1F661F771F881FEF
:1055200091505040A9F79E3F510580F00C94AD2A50
:105530000C943A2A5F3FE4F3983ED4F3869577952E
:105540006795B795F795E7959F5FC1F7FE2B880F95
:10555000911D9695879597F9089597F99F6780E82B
:1055600070E060E008959FEF80EC089500240A94B5
:105570001616170618060906089500240A9412162E
:105580001306140605060895092E0394000C11F461
:10559000882352F0BB0F40F4BF2B11F460FF04C00E
:1055A0006F5F7F4F8F4F9F4F0895AA1BBB1B51E129
:1055B00007C0AA1FBB1FA617B70710F0A61BB70B83
:1055C000881F991F5A95A9F780959095BC01CD0128
:1055D000089597FB072E16F4009407D077FD09D0A5
:1055E0000E94D52A07FC05D03EF4909581959F4FE7
:1055F0000895709561957F4F0895EE0FFF1F0590F8
:10560000F491E02D0994F999FECF92BD81BDF89AED
:10561000992780B50895A6E1B0E044E050E00C94ED
:105620003D2BA8E1B0E042E050E00C943D2B262F4A
:10563000F999FECF92BD81BDF89A019700B4021688
:1056400039F01FBA20BD0FB6F894FA9AF99A0FBE36
:1056500008950396272F0E94182B0E94172B252FA1
:105660000E94182B242F0C94182B0196272F0E9490
:10567000182B0C94172BDC01CB01FC01F999FECF00
:1056800006C0F2BDE1BDF89A319600B40D924150CA
:105690005040B8F70895F894FFCF4C0651065606CF
:1056A0005B06600665066A06C206E7066F067B06AD
:1056B0007F06830687068B068F06930697069B0652
:1056C0009F06A306A706AB06AF06B306B706BB0642
:1056D0005F135F13B713B713FB1317148F138F13D5
:1056E00022148F13EA14EA1455155E158F137E15D4
:1056F00067288C2870298C287029BC28DD287029FF
:0457000032293E29E3
:10570400FFE4012808140A321EC22252232F23F870
:1057140022C52201F7F6F5F4F1F095969734353663
:1057240030313233404D3639240AD709A10968098A
:08573400FB0814092D094609C8
:00000001FF
