:100000000C94DB010C9422020C9422020C946009E3
:100010000C9422020C9422020C9422020C942202D0
:100020000C9422020C9422020C94A81C0C947A1DAD
:100030000C9466150C9422020C9422020C94220259
:100040000C9422020C9422020C9422020C942202A0
:100050000C9422020C94B3150C9422020C942202EC
:100060000C9422020C9422020C9422020C94220280
:100070000C9422020C9422020C9422020C94220270
:100080000C9422020C9422020C9422020C94220260
:100090000C9422020C9422020C9422020C94220250
:1000A0000C9422020C9422020C9422020A0C0A0CD8
:1000B0003C0C3C0C9D0D890C9D0D9D0D940C2D0D43
:1000C0003E0D3E0D350E350E470E470E3E0E470EC9
:1000D000470E470E350E350E430E470E470E430EA4
:1000E000E71D0E1E061F0E1E061F5A1E7D1E061F32
:1000F000D41EE31E2B0014001A0008001500170080
:10010000E00004001600070009000A00E1001D00DD
:100110001B00060019000500000000000000E200BE
:10012000E30002512A00130012000C0018001C000A
:10013000340033000F000E000D000B00E500380006
:1001400037003600100011000000000000002800F9
:100150002C00015129001E001F0020002100220058
:10016000E00000000000000000000000E1000000CE
:10017000000000000000000000000000000001007E
:10018000010003512A002700260025002400230037
:10019000000000004F00520051005000000000001D
:1001A000000000000000000000000000000001004E
:1001B0000100010029001E021F022002210222026A
:1001C000E00000000000000000000000E10000006E
:1001D000000000000000000000000000000001001E
:1001E000010001002A002702260225022402230220
:1001F0003500310230022F022E002D003502310071
:1002000030002F002E022D0200000000000001002F
:10021000010003513A003B003C003D003E003F001E
:10022000C25CC55CC75CC95C0000005CC35CC65CAA
:10023000C85CCA5C00000000000000000000010073
:10024000010001004500440043004200410040001D
:10025000000000000000000000000000000000009E
:10026000000000000000000000000000000001008D
:1002700001000100040330000000480343006F0048
:1002800072006E00650020004B006500790062007E
:100290006F0061007200640020005200650076006B
:1002A0002E00310020002800530070006C0069000F
:1002B0007400200043006F006D006D006F006E0041
:1002C00029000000100366006F006F0073007400C7
:1002D00061006E0000000403090409023B000201F2
:1002E00000A0FA0904000001030101000921110125
:1002F00000012240000705810308000A09040100EB
:100300000103000000092111010001224F0007052F
:10031000820320000A120110010000000853460168
:100320000001000102030105010902A10185020982
:1003300001A100050919012905150025019505757B
:10034000018102950175038101050109300931150B
:1003500081257F95027508810609381581257F95CD
:100360000175088106050C0A38021581257F950163
:1003700075088106C0C005010906A101050719E03D
:1003800029E7150025019508750181029501750879
:1003900081010507190029FF150026FF0095067544
:1003A0000881000508190129059505750191029537
:1003B0000175039101C011241FBECFEFDAE0DEBF4B
:1003C000CDBF04B603FE27C08091F6019091F701DE
:1003D000A091F801B091F9018730904BA740B04B44
:1003E000D1F41092F6011092F7011092F8011092D8
:1003F000F90114BE84B7877F84BF0FB6F894A8951F
:1004000080916000886180936000109260000FBE50
:10041000E0E0F8E3099511E0A0E0B1E0E8E5FFE3F2
:1004200002C005900D92AC32B107D9F721E0ACE2E1
:10043000B1E001C01D92A63FB207E1F70E94E619A4
:100440000C94AA1F0C9400000E9409068093D0010E
:100450000C94B80481E0089581E008950C942C0276
:1004600008950C9430021F93CF93DF9300D000D0F7
:100470001F92CDB7DEB749835A836B8330914B010E
:1004800089819A81311114C0662359F0222349F0E1
:100490000E94F612182F682F89819A810E949D125E
:1004A00003C00E94C912182F69817A81812F04C06C
:1004B0000E94F61269817A810F900F900F900F9031
:1004C0000F90DF91CF911F910C94E102FC01262F38
:1004D000408151816281738184810C943302CF9376
:1004E000DF93EC0160E00E946602BE01DF91CF91D4
:1004F0000C9431020E941B14811102C00E94BB1493
:100500000C9424020C94B60408950C94840281E0A7
:1005100008950C948702CF93C82F0E9485028C2FD8
:100520000E948902CF91089508950E94230E0E948F
:1005300094022FEF84E39CE0215080409040E1F74B
:1005400000C000000C94D9150F931F93CF93DF9335
:10055000EC0161E00E9466028C01BE010E942E0245
:10056000882349F1BE01C8010E940707882319F1B9
:10057000BE01C8010E9459078823E9F0BE01C801E5
:100580000E9484088823B9F08A81882369F00115C4
:100590008CE5180731F00E3D1C4531F40E94BB1468
:1005A0000AC00E94950207C0CE01DF91CF911F9132
:1005B0000F910C942A0280E0DF91CF911F910F914F
:1005C000089520E3829FC0011124FC0126E0729F60
:1005D000E00DF11D1124E60FF11DEE0FFF1FEC5091
:1005E000FF4F859194910895CF93DF930E94E1028C
:1005F0000E94D103EC018115924580F5C11581E57A
:10060000D80708F095C0CF3FD10509F0B8F4C03F36
:10061000D10508F06CC0C53AD10548F4C430D10505
:1006200008F0BBC0C130D10509F4B7C0B4C0CE01D9
:10063000805E9109089708F4B0C0ADC0C11590E57F
:10064000D90708F059C0C11520E4D20708F051C0FD
:10065000C11580E2D80708F4A0C09DC0C11596E579
:10066000D90718F5C11525E5D20708F07AC0C115DC
:1006700084E5D80708F070C09E01237033278C2FC3
:1006800086958695C115D34508F057C0C1E0D0E0E6
:1006900002C0CC0FDD1F2A95E2F720E2829FC00145
:1006A0001124C82BD92BDC6878C0C1152AE5D207E4
:1006B00078F4C11589E5D80708F05DC0C11598E543
:1006C000D90708F468C0DC2FCC27C06FD06A65C09A
:1006D000CE0190568115904208F05DC08D2F8F712C
:1006E0000E946504DD27D0628F71D82B56C0D0657B
:1006F00054C0DF70D06A51C0CE0174E096958795E2
:100700007A95E1F783709C2F937021E030E002C06E
:10071000220F331F9A95E2F73C68382BCF70C695AD
:10072000C69580E2C89FE0011124C22BD32B35C0AF
:10073000DC2FCC27C16FD06A30C0C1E0D0E002C04E
:10074000CC0FDD1F2A95E2F720E2829FC001112421
:10075000C82BD92BDA6821C0DC2FCC27C46FD06A14
:100760001CC08C2F0E9465048F71C82FD0E0DC2F35
:10077000CC27D06212C08C2F8F700E94650494E049
:10078000D695C7959A95E1F7CF70D0E0DC2FCC27AE
:10079000D069C82B02C0C0E0D0E0CE01DF91CF917C
:1007A00008958238910569F1B0F48133910509F417
:1007B0006DC048F48932910509F463C08A3291050D
:1007C00009F469C008958533910509F455C089334A
:1007D0009105B9F00895833E910569F138F4803EA2
:1007E0009105B1F0823E910509F10895863E91058B
:1007F000A9F1873E9105B9F1843E910509F064C0E5
:1008000023C02091E70120FD4FC021FD4DC0089578
:100810008091E70180FD44C08091E80180FF44C0E1
:100820008091E70184FD42C083EE4DC08091E701D5
:1008300082FF38C0F5CF8091E70182FD33C08091FF
:10084000E80180FD31C0ECCF8091E80181FF32C02A
:100850008091E70184FD2AC087EE35C08091E701D1
:1008600083FF26C0F5CF8091E70183FD21C08091F1
:10087000E80181FD1FC0ECCF8091E70185FD1CC020
:100880001DC08091E70185FD19C016C08091E70168
:1008900086FD16C017C08091E70186FD13C010C009
:1008A00089E311C082EE0FC080EE0DC080E00BC066
:1008B00086EE09C084EE07C089E205C085E303C067
:1008C0008AE201C081E390E008959091E70192FFF0
:1008D0000DC0282F2871283019F4877F846006C046
:1008E000282F2471243011F48B7F886093FF0DC072
:1008F000282F2871283119F4877E846106C0282F9B
:100900002471243111F48B7E88612091E80120FF4D
:100910000DC0382F3871383019F4877F816006C0D8
:10092000382F3171313011F48E7F886021FF0DC076
:10093000282F2871283119F4877E816106C0282F5D
:100940002171213111F48E7E886194FD877E089596
:10095000E82FF0E0E752FE4F80810895089580EA85
:100960008A95F1F7089508950C94B3040C94B40497
:100970000C94B3040895CF93DF930E9428068091CE
:10098000000180910001811102C094E001C090E05B
:100990009093E20184E0891B8093E101A4E2B1E03D
:1009A00048E251E061E070E08D91E82FE295EF7050
:1009B000F0E021A18F70EB0102C0CC0FDD1F8A9502
:1009C000E2F7CE019C2F9095922391A392A1892BBF
:1009D00082A34A175B0741F7AEE1B1E044E251E080
:1009E00061E070E08D91E82FE295EF70F0E021A1D9
:1009F0008F70EB0102C0CC0FDD1F8A95E2F7CE01AC
:100A00009C2F9095922391A392A1892B82A34A17A0
:100A10005B0741F7E1EDF1E0A9EDB1E089ED91E08F
:100A200011921D928E179F07D9F784E00E94D2057C
:100A30000E947A02DF91CF910C9432060E9409063F
:100A40008823F1F08091E10190E087529E4F0E944F
:100A50004506811111C080912C018F5F80932C017C
:100A6000863060F0E091E101F0E0E752FE4F108245
:100A700011821282138202C010922C010C94820205
:100A80008091E20190E087529E4F0E9460060C9494
:100A9000BA046F927F928F929F92AF92BF92CF9241
:100AA000DF92EF92FF920F931F93CF93DF9384E235
:100AB000882E81E0982E01ED11E095EDA92E91E0B0
:100AC000B92E712CCC24C394D12CF40181914F0107
:100AD000C82FC295CF70D0E099A18F70760101C068
:100AE000EE0C8A95EAF7892F8E2989A38AA16E2CAC
:100AF000609486218AA30E94AF04EEE1F1E040E019
:100B000050E020E03191A32FA295AF70B0E0909615
:100B10008C9190E03F7002C0959587953A95E2F7E9
:100B200080FD07C08C2D042E01C0880F0A94EAF7BF
:100B300001C080E0282B4F5F5F4F4630510511F711
:100B400089A1682269A28AA1E82AEAA2F801808123
:100B5000281719F0208381E001C080E0782A0F5F18
:100B60001F4FA016B10609F0B0CF6091E20170E00E
:100B700067527E4F272D44E081ED91E00E94D3051E
:100B80000E941E05872DDF91CF911F910F91FF903D
:100B9000EF90DF90CF90BF90AF909F908F907F901D
:100BA0006F9008950895FF920F931F93CF93DF9353
:100BB0008C01F62ED72FC42F222349F081E0809399
:100BC0002F010E94981590932E0180932D01809102
:100BD0002F018823C1F080912D0190912E010E9458
:100BE000A415069780F0EF2DFD2FD8014C2F50E073
:100BF000CD01801B910B841795071CF48D91819377
:100C0000F7CF10922F01DF91CF911F910F91FF909D
:100C1000089580913001811112C08091D8008061C7
:100C20008093D8008AE18A95F1F700C08091D900BD
:100C300080FD02C082E001C081E08093300181E04C
:100C400090913001913009F080E008950C940906EC
:100C50000E942606809300010E94090681110C94CF
:100C6000390608950E940906811102C00C943F06BE
:100C7000089561E070E081E091E00C94120961E078
:100C800070E081E091E00C941909CF93DF93D82FA5
:100C9000C92F0E94B109892B79F4ED2FFC2F80E038
:100CA00090E0DC01AE5CBE4F2C9121930196843024
:100CB0009105B9F781E001C080E0DF91CF910895FF
:100CC00020E030E0FC014191CF01F901EE5CFE4FE4
:100CD00040832F5F3F4F24303105A1F70895AF9235
:100CE000BF92CF92DF92EF92FF920F931F93CF9319
:100CF000DF937C015B01C42FD22FFC01828188230A
:100D0000F9F0409338010E94981590933701809331
:100D1000360180E28C0F883008F06EC0C77081E029
:100D200001C0880FCA95EAF7DF91CF911F910F910B
:100D3000FF90EF90DF90CF90BF90AF900C94C20BDC
:100D400080913801481335C0809136019091370168
:100D50000E94A4156C01B701C5010E94DC10C816E1
:100D6000D90638F510E21D0FCD17B9F080E28C0FCF
:100D7000883040F4C77081E001C0880FCA95EAF757
:100D80000E94C90B183058F581E09D2F977001C063
:100D9000880F9A95EAF70E94C20B802F0E94AF0B32
:100DA000183050F5D77081E001C0880FDA95EAF766
:100DB0000AC080E28C0F8830F8F4C77081E001C06F
:100DC000880FCA95EAF7DF91CF911F910F91FF909D
:100DD000EF90DF90CF90BF90AF900C94C90B802F15
:100DE000DF91CF911F910F91FF90EF90DF90CF9007
:100DF000BF90AF900C94AF0BDF91CF911F910F91EB
:100E0000FF90EF90DF90CF90BF90AF9008950F9339
:100E10009C01CB01233F4CE5340731F188F4283D98
:100E2000FCE53F07D9F0293D4CE5340779F1273D32
:100E30003C45A9F506E221EE41EE67ED7CE52BC0CD
:100E4000253FFCE53F07E1F0A8F0263F3C4539F59A
:100E500007E225EE46EE66EF7CE51DC007E225EED3
:100E600045EE68ED7CE517C006E221EE40EE63EF4B
:100E70007CE511C007E225EE44EE64EF7CE50BC093
:100E800006E221EE42EE65EF7CE505C008E221E0D6
:100E900045EE69ED7CE50E946F0680E008C0FC012C
:100EA0008281882319F01092380101C081E00F91EE
:100EB0000895CF93DF93EC01FB018281882309F42D
:100EC0001FC1C230FCE5DF0708F41BC1C6319CE539
:100ED000D90738F09E012A5F3C452930310508F0DA
:100EE00010C10E942E149093E8018093E701C03155
:100EF000ECE5DE0709F4C3C008F041C0C8308CE55A
:100F0000D80709F49AC0F0F4C430ECE5DE0709F420
:100F100087C068F4C2308CE5D80709F477C0C330C5
:100F2000DC4509F0E3C08091E701826076C0C630FD
:100F3000ECE5DE0709F46EC008F07BC08091E701A4
:100F400088606BC0CC308CE5D80709F485C068F4A4
:100F5000CA30ECE5DE0709F474C008F079C00E94DD
:100F6000230E8091E701806858C0CE308CE5D80709
:100F700009F476C008F07FC08091E7018BC0CB3FB9
:100F8000ECE5DE0709F44FC018F5C3318CE5D8074E
:100F900009F47DC078F4C131ECE5DE0709F473C0D3
:100FA000C231DC4509F0A2C00E94230E8091E70106
:100FB0008F7733C0C5318CE5D80709F472C008F4C7
:100FC00086C0CA3FDC4509F091C08091E8013EC06F
:100FD000CF3FFCE5DF0709F45FC058F4CD3F9CE547
:100FE000D90709F444C008F43FC08091E801826049
:100FF0002DC0C130FDE5DF0709F475C008F45DC000
:10100000C230DD4509F072C080E06EC08091E7011A
:10101000816003C08091E70180618093E70166C031
:101020008091E70111C08091E80182608093E8011E
:101030005DC08091E7018062F0CF8091E70180641C
:10104000ECCF8091E70188608460E7CF8160EECFCC
:101050008091E7018E7FE1CF8091E7018D7FDDCF29
:101060008091E701877FD9CF8091E80118C08091F6
:10107000E8018D7FDBCF8091E7018F7ECECF80911D
:10108000E7018F7DCACF8091E7018F7BC6CF80912A
:10109000E701877F8B7FC1CF8091E8018D7F8E7FB5
:1010A000C5CF8091E70182FB222720F991E09227AA
:1010B00090FB82F990FB83F9B0CF8091E801982FE3
:1010C000909591708E7F892B90FB81F9AFCF0E9414
:1010D000230E8091E70187FB222720F991E09227D8
:1010E00090FB87F99ACF81E00E94BD148091E701BF
:1010F0009091E8010E943F140E94230E80E001C0FD
:1011000081E0DF91CF910895CF93DF9386319C45A5
:1011100041F5EB010E947713982F8A8120910901F4
:1011200030910A01882379F09A7A81E009F480E00D
:1011300080933901911102C069E201C065E3C901E0
:101140000E9404150AC080913901811102C069E230
:1011500001C065E3C9010E9406150E94B81380E032
:1011600001C081E0DF91CF9108958EE14A9B02C0DA
:101170008150E1F74A9BFECF08955A9880E28A9504
:10118000F1F75A9A0895FC012AE02A95F1F728E030
:1011900090E080E031E040E14A95F1F7880F4A9B0A
:1011A00002C08160932700C0000040E14A95F1F73A
:1011B000215089F720E12A95F1F729B100C00000FC
:1011C00030E13A95F1F722FB222720F9922720817E
:1011D000920F90830895EF92FF920F931F93CF93F6
:1011E000DF931F92CDB7DEB719828C017C01E60E2A
:1011F000F11C0E151F0551F00E94B508CE01019695
:101200000E94C308F80181938F01F3CF81E0998197
:10121000911180E00F90DF91CF911F910F91FF907E
:10122000EF90089590933B0180933A01529A5A9A15
:10123000089590933B0180933A0152985A9AEA9A02
:10124000E9E6F0E080818F7C80830895615091E031
:1012500001C0990F6A95EAF720E031E0992361F027
:10126000492F482319F05A9A232701C05A9840E27F
:101270004A95F1F79695F2CF222311F05A9A01C0C0
:101280005A9880E28A95F1F75A980895FF920F9341
:101290001F93CF93DF93EC018C01060F111DC01734
:1012A000D10741F0F9900E94BD0868E08F2D0E949F
:1012B0002609F5CFDF91CF911F910F91FF900895EF
:1012C0001F920F920FB60F9211242F933F934F93BB
:1012D0005F936F937F938F939F93AF93BF93CF93BE
:1012E000DF93EF93FF935A98529AC0913A01D091AD
:1012F0003B016D81662321F08E819F810E9446090A
:101300000E94BD0880E18A95F1F75A9852985A9A3E
:1013100080E18A95F1F76A81662351F08B819C8187
:101320000E94EB08E881F981811104C082E003C0CA
:10133000E881F98188E080830E94B508FF91EF91F0
:10134000DF91CF91BF91AF919F918F917F916F91DD
:101350005F914F913F912F910F900FBE0F901F9073
:101360001895CF93DF93C0913A01D0913B01F89447
:10137000529A5A9885E08A95F1F7000052985A9A45
:1013800080E28A95F1F74A9B0AC0529A5A9AE881FC
:10139000F98181E08083789481E090E02CC06D81B8
:1013A000662381F08E819F810E94EB0881110AC023
:1013B000529A5A9AE881F98182E08083789482E097
:1013C00090E019C00E94B50880E28A95F1F75A981A
:1013D000529A80E18A95F1F76A81662321F08B8128
:1013E0009C810E9446090E94BD08E881F981108213
:1013F000789480E090E0DF91CF910895909341013F
:10140000809340010895E0914001F09141013097AF
:1014100021F00190F081E02D099480E00895E091A1
:101420004001F0914101309721F00280F381E02DDD
:1014300009940895E0914001F0914101309739F00D
:1014400022E0DC012C930480F581E02D09940895BD
:1014500020913E0130913F012817390771F0909398
:101460003F0180933E01E0914001F09141013097AE
:1014700021F00680F781E02D0994089520913C0128
:1014800030913D012817390771F090933D01809309
:101490003C01E0914001F0914101309721F000843E
:1014A000F185E02D0994089585B7806885BF85B7DB
:1014B000806885BF089508950C945B0A0C945C0ABB
:1014C0000C945B0A0C945B0A0E94540A0E94600A06
:1014D0000C945E0A0C9409060E948F150E94BB04AE
:1014E0000E94EA150C94620AAF92BF92CF92DF92EB
:1014F000EF92FF920F931F93CF93DF93CDB7DEB799
:101500002A970FB6F894DEBF0FBECDBF0E944905E3
:101510000E946A0A811111C08FEF89838A831B821E
:101520000E9498158160782F9D838C8349815A8110
:101530006B818D810E940C0B40C083E4A82E81E05A
:10154000B82E00E010E0C02E802F0E94A804E82EE4
:10155000F501D1905F01D82631F40F5F1F4F08309D
:10156000110589F7D9CF8091B70181FD0E94AE04A2
:1015700080E0FF24F3949D2D9F21D1F08E83CF82B4
:10158000EF2081E009F480E088870E94981581604F
:10159000782F9A8789874E815F8168858A850E9426
:1015A0000C0BF801ED5BFE4F8081F826F08205C040
:1015B0008F5FFF0C8630F9F6D0CF0E9499170E94FA
:1015C000030A909142018917B1F00E94030A8093A7
:1015D00042012A960FB6F894DEBF0FBECDBFDF9151
:1015E000CF911F910F91FF90EF90DF90CF90BF9020
:1015F000AF900C948B022A960FB6F894DEBF0FBE04
:10160000CDBFDF91CF911F910F91FF90EF90DF90B1
:10161000CF90BF90AF900895CF93DF93CDB7DEB753
:101620002B970FB6F894DEBF0FBECDBF4F83588700
:1016300069877A878B87DE01119686E0FD0111921A
:101640008A95E9F785E0FE01379601900D928A951B
:10165000E1F749815A816B817C818D819E810E9455
:10166000DF102B960FB6F894DEBF0FBECDBFDF9113
:10167000CF910895FC01808191810E9438130895D3
:10168000CF938823B1F1C82F8CEF8C0F813AD0F41F
:101690006C2F8091090190910A010E94CE14882339
:1016A00049F06C2F8091090190910A010E94061562
:1016B0000E94B8136C2F8091090190910A010E9439
:1016C00004150CC080E28C0F883058F4C77081E09C
:1016D00001C0880FCA95EAF70E947A13CF910C9443
:1016E000B813C03F30F08C2F0E948E16CF910C940F
:1016F0007B17CF910895882389F19CEF980F913A39
:1017000040F4682F8091090190910A010E9406150A
:101710000DC090E2980F983058F4877091E001C0A6
:10172000990F8A95EAF7892F0E9480130C94B813B9
:101730009BE5980F933020F480E090E00C94280A09
:1017400098E5980F973120F480E090E00C943E0AE1
:10175000803F20F00E94F6160C947B170895CF93DB
:10176000C82F0E94400BC93349F42FEF87EE93E056
:10177000215080409040E1F700C000008C2FCF91B5
:101780000C947B0B882321F00E947A130C94B813DD
:101790000895882321F00E9480130C94B8130895B3
:1017A000CF92DF92EF92FF920F931F93CF93DF932D
:1017B0007C01D62FC72FFC01058102950F70128185
:1017C00011110E9497130E947013882399F011231E
:1017D00089F08C2F807F803421F080E28D0F88305B
:1017E00048F082E00E9402140E94701391E0D82E0B
:1017F000D92601C0D12CCC2EC2948FE0C8228C2DCA
:1018000090E08C30910508F098C1FC01EA5AFF4F36
:101810000C944E1F8C2F807FCF70882311F0C295BF
:10182000C07F112399F0CC2309F473C180E28D0F9E
:10183000883010F0D11104C08C2F0E947A1303C09D
:101840008C2F0E948A130E94B81363C18D2F0E94AF
:101850007B0BCC2309F471C180E28D0F883010F02E
:10186000D11104C08C2F0E94801303C08C2F0E94C2
:1018700090130E94B81361C18C2F807FCF7080328B
:1018800011F0C295C07FDD2319F0D130C9F022C01C
:10189000112371F0002341F0013031F40E949D13B7
:1018A0008C2B0E94A51349C10E949D138C2B1DC037
:1018B000002319F0013009F440C10E94AE1325C085
:1018C000112321F0063008F038C10EC0053008F0B1
:1018D00034C11BC0112361F0002331F0F701858171
:1018E00080FF17C18F7085838C2F0E94C20B25C18A
:1018F000002359F0D93309F01DC1FFEF07EE13E0C3
:10190000F15000401040E1F713C18C2F0E94C90B29
:1019100014C18D2F112319F00E948E1602C00E944F
:10192000F6160E947B1711C18C2F837009F047C0F7
:10193000111107C12D2F229526952770220F220FF6
:101940006D2F6F70862F90E0A0E0B0E0022E04C0F3
:10195000880F991FAA1FBB1F0A94D2F7D4FF10C08B
:101960004FE050E060E070E004C0440F551F661F78
:10197000771F2A95D2F7409550956095709503C0D2
:1019800040E050E0BA01C695C695C3708A019B013C
:10199000082B192B2A2B3B2BC901B801C23049F067
:1019A00058F4C13019F00E94B311CBC00E94A111AC
:1019B000C8C00E94C511C5C00E949F11C2C011239A
:1019C00019F08C2F817001C08695882309F4B9C065
:1019D0002D2F229526952770220F220F6D2F6F70C5
:1019E000862F90E0A0E0B0E0022E04C0880F991F7F
:1019F000AA1FBB1F0A94D2F7D4FF10C04FE050E0DB
:101A000060E070E004C0440F551F661F771F2A95E1
:101A1000D2F7409550956095709503C040E050E036
:101A2000BA01C695C695C3708A019B01082B192B74
:101A30002A2B3B2BC901B801C23049F058F4C13000
:101A400019F00E9478127DC00E9466127AC00E942E
:101A50008A1277C00E94D91174C0CF70112339F057
:101A60008C2F0E94FF118D2F0E94C20B6AC08D2FF8
:101A70000E94C90B8C2F0E94201263C0D23F01F13B
:101A800028F4D03F41F0D13FA1F03FC0D33FF9F05F
:101A9000D43F39F13AC0112341F0053008F04DC070
:101AA0008C2F8F710E94451248C0063008F045C047
:101AB000F7CF112339F08C2F8F710E94FF113DC099
:101AC0001123C9F38C2F8F710E94201236C011236D
:101AD00029F08C2F8F710E94EA112FC00E94E5110E
:101AE0002CC0112349F0CF718C2F0E94FF1163E0AD
:101AF0008C2F0E94ED1321C081E00E94021402305D
:101B0000E0F082E00E94021418C0112331F000239B
:101B100091F28D2F0E94400B10C0002399F2D9330F
:101B200049F41FEF27EE33E0115020403040E1F739
:101B300000C000008D2F0E947B0B88EF8C0D84303D
:101B400020F40E94030A0E948B02DD20C9F00E944B
:101B50006C1380FD15C0F70112820E9466130E946B
:101B6000FF11C7010E94E10D0E946613DF91CF9122
:101B70001F910F91FF90EF90DF90CF900C94201267
:101B8000DF91CF911F910F91FF90EF90DF90CF9059
:101B900008950F931F93CF93DF93EC0168817981B0
:101BA0008A810E9443138C010E949C120E948D1115
:101BB000B801CE010E94D00BDF91CF911F910F9100
:101BC0000895CF93DF93EC01988189812B813C812B
:101BD000232B31F08F3F31F481E09F3F19F403C094
:101BE00081E001C080E080FD19C0CE010E94A40206
:101BF00081110CC00E947013882381F08A81882390
:101C000069F082E0DF91CF910C940214CE010E9422
:101C1000C90DCE01DF91CF910C946F02DF91CF916E
:101C200008950E9497130E949A130E94B8130E946D
:101C3000AC180C947B178091090190910A010E94C5
:101C400008150C94110E0E9487130C941B0EE92F9B
:101C5000E295EF704E2F50E0FA013297EE30F10529
:101C6000B0F4EE59FF4F0C944E1F803F91F018F4E2
:101C7000883E68F40EC0843F51F40BC0883E48F0A3
:101C8000813F29F406C093FB882780F9089580E0FE
:101C9000089581E008950E9438130E94270E089548
:101CA000CF93DF9300D000D01F92CDB7DEB70F9057
:101CB0000F900F900F900F90DF91CF910895CF93D9
:101CC000DF9300D000D000D0CDB7DEB726960FB698
:101CD000F894DEBF0FBECDBFDF91CF9108951F9363
:101CE000CF93DF93C0914C0116E080914D01C8174E
:101CF00099F0D0E01C9FF0011D9FF00D1124E25BD4
:101D0000FE4F4081518162817381848195810E945F
:101D10005F0E2196C770E9CFDF91CF911F91089593
:101D200040917E0150917F0160918001709181010D
:101D300080918201909183010C945F0E0F931F9309
:101D4000CF93DF938091830182958F7009F05DC0FE
:101D500080918001882309F458C080914C01109132
:101D60004D0160917E0170917F01C0918101D09100
:101D7000820191E06F3F09F090E0292F06E0811782
:101D800009F443C0209721F07F3F21F030E003C0E9
:101D900031E001C0322F90E030FD34C0089FF001E7
:101DA000099FF00D1124DF01A25BBE4F11963C91FB
:101DB0001197371327C03C91361324C012963C91DB
:101DC000129731111FC013964D915C9114974C1BC3
:101DD0005D0B483C5105B0F4809183018F708061A8
:101DE00080938301ED5AFE4F80818F7080618083E4
:101DF0008EE791E00E94E10DDF91CF911F910F914D
:101E00000C946F0E01968770BACFDF91CF911F911E
:101E10000F9108959F92AF92BF92CF92DF92EF926F
:101E2000FF920F931F93CF93DF93CDB7DEB76197E8
:101E30000FB6F894DEBF0FBECDBF8C0185E0F80170
:101E4000DE011D9601900D928A95E1F7F80140811F
:101E50005181E28090917E0160917F01209181010A
:101E6000309182012115310531F06F3F31F481E06D
:101E70009F3F19F403C081E001C080E0F82FF170AA
:101E80009F2E80FD46C1F801A380B4808EE7C82E46
:101E900081E0D82EF0908001F501E21BF30BFF20CA
:101EA00009F4DFC080918301E83CF10508F09BC094
:101EB000282F207F09F052C0561313C0491311C0B8
:101EC000FE2CE1100EC08F708061809383010E9410
:101ED000900EC6010E94E10D80918301F801858377
:101EE00058C1AB2831F05F3F31F481E04F3F19F426
:101EF00003C081E001C080E080FD03C081E08E2549
:101F000002C080E090E0F82FF170FF2E80FF1CC02F
:101F100080914C0120914D0136E0821709F417C1E0
:101F200090E0389FF001399FF00D1124E25BFE4FE5
:101F30006181561306C06081461303C06281E612B8
:101F400003C001968770E9CFFE2CEE2009F421C171
:101F5000809183018160809383015AC0561306C02B
:101F6000491304C0E11002C0F8019FC04D875E878D
:101F70008D859E850E944B0E882379F1EE2069F1B4
:101F800020918301822F82958F7090E0029774F0E8
:101F900080917E0190917F0198878F831986BB86FF
:101FA000AA862C87CE0107960E94E10D86E0F801F3
:101FB000AEE7B1E001900D928A95E1F70E949E0E86
:101FC0000E94900E0DC0561729F14D875E878D85B2
:101FD0009E850E944B0E81112CC0C8010E94E10D0C
:101FE000FF24F394D6C0282F207F69F77A2DB98A71
:101FF000A88A6E2D89890E94500E8EE791E00E947A
:10200000E10D86E0F60111928A95E9F70E94900EA3
:10201000F12CBFC04913D9CFE110D7CFF801858388
:10202000C8010E94E10D86E0F60111928A95E9F758
:10203000B0C0EE2091F220918301822F82958F70A3
:1020400090E002970CF4B2CF80917E0190917F01D5
:102050009A8389831B82BD82AC822E83CE01019636
:10206000A3CFE83CF10508F047C0FE2CEE2009F4B0
:10207000B4CF561330C049132EC02091830120FDE8
:1020800021C0822F82958F70482F50E04115510555
:10209000C9F0F80125834F30510541F08F5F982F2B
:1020A0009295907F822F8F70892B8583C8010E9423
:1020B000E10D86E0F801AEE7B1E001900D928A955E
:1020C000E1F742C086E0F801AEE7B1E001900D9281
:1020D0008A95E1F75EC04D875E878D859E850E945B
:1020E0004B0E811163CF80918301816080938301C6
:1020F000C8010E94E10D4DC07A2DB98AA88A6E2DC3
:1021000089890E94500E86E0F60111928A95E9F7BE
:102110001BC0EE2009F461CF4D875E878D859E85BB
:102120000E944B0EF82E882309F457CF86E0F80161
:10213000AEE7B1E001900D928A95E1F78EE791E06C
:102140000E943A0B0E949E0E0E94900E22C04D8764
:102150005E878D859E850E943813292F22952F70CA
:10216000223028F49F7039F0811105C00BC0243053
:1021700028F49F7049F4805E883020F0C8010E94E6
:10218000E10D9F2CF92C05C0F8019581907F99F7FE
:10219000F9CF8F2D61960FB6F894DEBF0FBECDBF7D
:1021A000DF91CF911F910F91FF90EF90DF90CF9033
:1021B000BF90AF909F90089588EC90E008951F9392
:1021C000CF93DF93CDB7DEB72C970FB6F894DEBF71
:1021D0000FBECDBF4F83588769877A878B879C87CF
:1021E000CE0107960E940A0F8823D1F09F8188852F
:1021F0002A853B85232B31F08F3F31F481E09F3FCF
:1022000019F403C081E001C080E080FD47C04F8128
:10221000588569857A858B859C850E945F0E3EC0B6
:1022200086E0FE013796DE01119601900D928A95A7
:10223000E1F7FF81E8856A857B856115710531F0DD
:10224000EF3F31F481E0FF3F19F403C081E001C0AA
:1022500080E080FD23C020914D0130E0C90101964E
:102260008770992740914C0150E084179507F1F150
:10227000F983EA837D836C8396E0929FD001939FDC
:10228000B00D1124A25BBE4FFE01319601900D925C
:102290009A95E1F780934D010E946F0E16E08091B0
:1022A0004C0190914D01891771F1189FC0011124C3
:1022B000825B9E4F0E940A0F882329F1E0914C0116
:1022C0001E9FF0011124E25BFE4F4081518162812B
:1022D0007381848195810E945F0E80914C0190E012
:1022E00001968770992780934C01D9CF0E94230EC5
:1022F00010924D0110924C01EEE7F1E086E0DF0113
:102300001D928A95E9F72C960FB6F894DEBF0FBEA2
:10231000CDBFDF91CF911F910895089508950C943A
:102320008E110C948F110E9491116093A6017093ED
:10233000A7018093A8019093A9010C94110E0C940D
:1023400093110F931F930091A6011091A701209163
:10235000A8013091A901602B712B822B932B1F9127
:102360000F910C9493110F931F930091A60110915C
:10237000A7012091A8013091A90160237123822334
:1023800093231F910F910C9493110F931F9300911E
:10239000A6011091A7012091A8013091A901602701
:1023A0007127822793271F910F910C9493110C94FE
:1023B0008E110E94D7116093A2017093A3018093A4
:1023C000A4019093A5010C94110E60E070E0CB0184
:1023D0000C94D9110F931F9341E050E060E070E03E
:1023E0008A019B0104C0000F111F221F331F8A9511
:1023F000D2F7C901B8011F910F910C94D9110F9315
:102400001F9341E050E060E070E004C0440F551FAE
:10241000661F771F8A95D2F78091A2019091A30140
:10242000A091A401B091A5018A019B01082B192B51
:102430002A2B3B2BC901B8011F910F910C94D91184
:102440000F931F9341E050E060E070E004C0440F40
:10245000551F661F771F8A95D2F740955095609556
:1024600070958091A2019091A301A091A401B091D7
:10247000A5018A019B01082319232A233B23C901B3
:10248000B8011F910F910C94D9110F931F9341E044
:1024900050E060E070E004C0440F551F661F771FD6
:1024A0008A95D2F78091A2019091A301A091A401F5
:1024B000B091A5018A019B01082719272A273B27EC
:1024C000C901B8011F910F910C94D9110F931F935B
:1024D0000091A2011091A3012091A4013091A501C6
:1024E000602B712B822B932B1F910F910C94D91180
:1024F0000F931F930091A2011091A3012091A401B9
:102500003091A50160237123822393231F910F91A2
:102510000C94D9110F931F930091A2011091A30164
:102520002091A4013091A50160277127822793276C
:102530001F910F910C94D9110895292F220F920FFA
:10254000990F890FE82FE695E695E695877051E09B
:1025500001C0550F8A95EAF785E0E89FF001112444
:10256000EC57FE4F20E030E070E04081CB01022EBE
:1025700002C0969587950A94E2F781708195842729
:102580008523842781932F5F3F4F2530310569F7DD
:102590000895292F220F920F990F890F682F6695A2
:1025A00066956695982F977085E0689FB001112415
:1025B00040E050E080E0FB01E40FF51FEC57FE4FD8
:1025C000208130E0092E02C0369527950A94E2F763
:1025D00021703327042E01C0220F0A94EAF7822BC0
:1025E0004F5F5F4F4530510531F70895BF92CF924D
:1025F000DF92EF92FF920F931F93CF93DF938C01A3
:10260000C090A201D090A301E090A401F090A50198
:102610008091A6019091A701A091A801B091A90174
:10262000C82AD92AEA2AFB2ACFE1D0E0D701C6017D
:102630000C2E04C0B695A795979587950A94D2F766
:1026400080FD04C0219790F7B12C07C0BC2EB801C3
:102650008C2F0E94F4020197A9F38B2DDF91CF916B
:102660001F910F91FF90EF90DF90CF90BF90089552
:10267000CF93DF93EC010E94F612BE010E94F40298
:10268000DF91CF9108951F93CF93DF93EB0190914A
:102690004B01992321F0CB010E94381313C08823EA
:1026A00049F0CB010E94F612182F682FCE010E942C
:1026B0009D1204C0CB010E94C912182FBE01812FA8
:1026C0000E94F402DF91CF911F9108958091AA0199
:1026D00085958595859508958091AA0187700895BF
:1026E0009091AA01977081E009F480E008958091AB
:1026F000B60108959091B601892B8093B601089593
:1027000080959091B60189238093B6010895109227
:10271000B60108959091B501892B8093B501089574
:1027200080959091B50189238093B5010895109209
:10273000B50108951092B40108958091AB010895F8
:1027400008950C94A0130C94A1139091AB019817C9
:1027500021F08093AB010C94A31308958091AB01F9
:10276000882329F01092AB0180E00C94A313089504
:10277000E0910901F0910A018091B6018083E09116
:102780000901F0910A0190818091B501892B808324
:10279000E0910901F0910A0190818091B401892BA7
:1027A00080838091AB01882381F0E0910901F09151
:1027B0000A019081892B80838091090190910A01FF
:1027C0000E94C21481110E94AE1380910901909160
:1027D0000A010C940F0A0C94A01398E0899F9001B1
:1027E0001124262B2093AA010E94FF118091AA0197
:1027F0008595859585950C94EB131092AA0180E040
:102800000C94EB132091AA01809582238093AA0156
:10281000982F977079F430E0482F082E000C550B54
:102820002417350739F08595859585950E942012E6
:102830000C94FD13089580E090E00E94701F21E049
:102840008C3E9E4F09F020E0822F089582E090E0B8
:102850000C94681F83E090E00C94681FCF9384E091
:1028600090E00E94681FC82F81E290E00E94681FDC
:102870002C2F30E0A901582BCA01CF910895CF9396
:10288000C92F682F84E090E00E94761F6C2F81E2B0
:1028900090E0CF910C94761FAB01BC018FE090E0EB
:1028A0000C94881FAB01BC0183E190E00C94881F5D
:1028B00060E070E0CB010C94521460E070E0CB015A
:1028C0000E944C140C9458146CEE7EEF80E090E063
:1028D0000E94941F60E082E090E00E94761F60E01A
:1028E00083E090E00E94761F1092A6011092A7014B
:1028F0001092A8011092A90160E084E090E00E948B
:10290000761F60E081E290E00E94761F60E085E043
:1029100090E00E94761F60E086E090E00E94761FC3
:102920006FEF87E090E00E94761F40E050E0BA0130
:1029300088E090E00E94881F60E08DE090E00E94B7
:10294000761F40E050E0BA0188E190E00E94881FC5
:1029500060E087E190E00E94761F40E050E0BA011D
:102960008CE190E00E94881F60E080E290E00E948D
:10297000761F0C945D140C946414682F8EE090E024
:102980000C94761FFC01329697E080E0915029F07C
:1029900021912223D9F38F5FF9CF0895662349F05F
:1029A000FC01329608962191621729F0E817F90781
:1029B000D1F780E0089581E008959C01FC013296F2
:1029C0009FEF80E04191461789F09F3F19F4411134
:1029D00001C0982F8F5F8630A9F79F3F39F0F9012A
:1029E000E90FF11D97FDFA956283089508959C0102
:1029F0002A5F3F4FFC014281461301C012820196BB
:102A000082179307B9F708950C94DD140C94F7140A
:102A1000029626E0FC0111922A95E9F7089508959F
:102A20000C940F150C940F15CF930E9412150E9451
:102A300049050E941015C0E08C2F0E94A804811146
:102A400004C0CF5FC830C1F701C081E0CF910895C5
:102A50000C940F150C9428150E942A158091ED01F5
:102A6000843049F11092B80120E488E190E00FB67B
:102A7000F894A895809360000FBE2093600080E0DA
:102A80000E948B020E942A1583B7817F846083BFD6
:102A900083B7816083BF7894889583B78E7F83BF27
:102AA0000FB6F894A89580916000886180936000CB
:102AB000109260000FBE08950C940F150E94230E13
:102AC0000E94030A0E948B020C945C151F920F92C5
:102AD0000FB60F9211248F939F93AF93BF93809162
:102AE000B801811113C08091E3019091E401A0919C
:102AF000E501B091E6014196A11DB11D8093E3016E
:102B00009093E401A093E501B093E601BF91AF91EA
:102B10009F918F910F900FBE0F901F90189582E09C
:102B200084BD93E095BD9AEF97BD80936E000895A4
:102B30002FB7F8948091E3019091E401A091E50111
:102B4000B091E6012FBF08959C014FB7F894809192
:102B5000E3019091E401A091E501B091E6014FBF3E
:102B6000821B930B089578941F920F920FB60F92C9
:102B700011248F939F93AF93BF938091E301909122
:102B8000E401A091E501B091E6010196A11DB11DFE
:102B90008093E3019093E401A093E501B093E601F3
:102BA000BF91AF919F918F910F900FBE0F901F908B
:102BB000189587E797E790930108809300089AE0BB
:102BC00088E10FB6F894A895809360000FBE9093AB
:102BD0006000FFCF0E941B14811102C00E94BB1431
:102BE0000E9426148093B7010E942E149093E8014E
:102BF0008093E7010E942A14682F70E080E090E043
:102C00000E949F116091A2017091A3018091A40183
:102C10009091A5010C94D7118091BF0180FF0BC04A
:102C20006091100185E0689FB0011124759567954A
:102C3000759567952BC081FF09C06091100185E0F3
:102C4000689FB00111247595679520C082FF07C069
:102C50006091100185E0689FB001112417C0909128
:102C6000BE019923D1F060910F01961788F720914A
:102C7000100185E0289F90011124929FA001939F4D
:102C8000500D112470E0CA010E943A1F603871058E
:102C900040F46115710519F406C065E070E0862FF7
:102CA00008958FE7089581E008958091BF0180FF26
:102CB00008C060910C0170E07595679575956795F2
:102CC00021C081FF06C060910C0170E07595679589
:102CD00019C082FF04C060910C0170E010C0909197
:102CE000BD01992399F060910B019617A0F780918F
:102CF0000C01899FC001112470E00E943A1F6038C6
:102D0000710540F46115710519F406C061E070E0C9
:102D1000862F08958FE7089581E00895803F21F47C
:102D20000E940C16819504C0813F29F40E940C1664
:102D30008093C3010895823F21F40E940C1681956F
:102D400004C0833F29F40E940C168093C2010895A9
:102D5000893F19F40E94551605C08A3F31F40E943C
:102D6000551681958093C40108958B3F21F40E94EC
:102D70005516819504C08C3F29F40E945516809306
:102D8000C5010895843F21F48091C101816017C07D
:102D9000853F21F48091C101826011C0863F21F4FA
:102DA0008091C10184600BC0873F21F48091C101F3
:102DB000886005C0883F31F48091C10180618093B3
:102DC000C10108958D3F21F48091BF0181600BC046
:102DD0008E3F21F48091BF01826005C08F3F29F4AE
:102DE0008091BF0184608093BF010895803F39F4D2
:102DF0008091C30187FF6AC01092C30167C0813F01
:102E000029F48091C3011816BCF360C09091C201EF
:102E1000823F29F497FF5AC01092C20157C0833FE6
:102E200019F41916CCF352C09091C401893F31F4C2
:102E300019160CF04BC01092C40148C08A3F19F417
:102E400097FF44C0F8CF8B3F39F48091C50187FFCD
:102E50003DC01092C5013AC08C3F29F48091C50154
:102E60001816BCF333C0843F21F48091C1018E7FDA
:102E700017C0853F21F48091C1018D7F11C0863F2D
:102E800021F48091C1018B7F0BC0873F21F4809199
:102E9000C101877F05C0883F31F48091C1018F7ED9
:102EA0008093C10113C08D3F21F48091BF018E7FBB
:102EB0000BC08E3F21F48091BF018D7F05C08F3FF5
:102EC00029F48091BF018B7F8093BF018091C20163
:102ED000811106C08091C301811102C01092BE0110
:102EE0008091C401811106C08091C501811102C089
:102EF0001092BD0108950E9498152091C2012111E0
:102F000004C02091C301222321F09093BC0180933F
:102F1000BB012091C401211104C02091C5012223CD
:102F200021F09093BA018093B90180EC91E00C9468
:102F30001A0AEF92FF920F931F93CF93DF9300D063
:102F400000D000D0CDB7DEB786E0E0ECF1E0DE01E6
:102F5000119601900D928A95E1F7E090C201F090F0
:102F6000C3010091C4011091C5011092C2011092D9
:102F7000C3011092C4011092C501E11003C0FF20EB
:102F800009F45DC08091BB019091BC010E94A41521
:102F9000AC019091BE01992339F02091110130E0EC
:102FA0002417350758F04BC0209112018AE0289F62
:102FB000900111242417350718F041C09F3F19F0E4
:102FC0009F5F9093BE01EE2061F00E940C161E14CC
:102FD00014F09FEF01C091E0989F902D11249093E1
:102FE000C201FF2061F00E940C161F1414F09FEF25
:102FF00001C091E0989F902D11249093C3013091CE
:10300000C2013323E1F02091C3012223C1F045EB3B
:103010003403C0011124992319F09093C20103C015
:1030200081E08093C20135EB2303C0011124992371
:1030300019F09093C30103C081E08093C301011193
:1030400003C0112309F45DC08091B9019091BA01C8
:103050000E94A415AC019091BD01992339F02091F3
:103060000D0130E02417350758F04BC020910E01B8
:103070008AE0289F900111242417350718F041C0D9
:103080009F3F19F09F5F9093BD01002361F00E9464
:103090005516101614F09FEF01C091E0989F902DE7
:1030A00011249093C401112361F00E94551611164A
:1030B00014F09FEF01C091E0989F902D1124909300
:1030C000C5013091C4013323E1F02091C5012223D1
:1030D000C1F045EB3403C0011124992319F09093FA
:1030E000C40103C081E08093C40135EB2303C00118
:1030F0001124992319F09093C50103C081E08093B6
:10310000C5018091C20181110BC08091C301811161
:1031100007C08091C401811103C08091C501811154
:103120000E947B17EB82FC820D831E8386E0FE01EA
:103130003196A0ECB1E001900D928A95E1F72696C8
:103140000FB6F894DEBF0FBECDBFDF91CF911F91B8
:103150000F91FF90EF900895E0ECF1E086E0DF0141
:103160001D928A95E9F71092BE011092BD0110924E
:10317000BF0108958091CE010895089522E0209323
:10318000E9002FEF3091E800215035FD06C035ED04
:103190003A95F1F700002111F5CF2091E80025FFC5
:1031A0000BC040E050E066E070E00E949C1A809105
:1031B000E8008E778093E8000895CF93DF9321E0B5
:1031C0002093E9002FEF3091E800215035FD06C033
:1031D00035ED3A95F1F700002111F5CF2091E80087
:1031E00025FF14C0EC0140E050E068E070E00E9470
:1031F0009C1A8091E8008E778093E80088E0FE01B9
:10320000A6ECB1E001900D928A95E1F7DF91CF91A4
:10321000089508958091EC01811109C00E942D1C30
:103220000E948A1C8091E20084608093E2000895ED
:103230001092EC010895089508950C945E1542E0F3
:1032400061EC81E00E94A61B42E261EC82E00C94FA
:10325000A61B8091EF01833009F460C030F4813007
:1032600071F0823009F499C008958A3009F485C05C
:103270008B3009F46BC0893009F0A7C020C0809161
:10328000EE01813A09F0A1C08091E800877F809328
:10329000E8008091F2019091F301892B21F468E01C
:1032A00086EC91E003C060E080E090E070E00E9476
:1032B000E71A8091E8008B778093E8000895809169
:1032C000EE01813209F081C08091F2019091F30109
:1032D000029708F07AC08091E800877F8093E80029
:1032E0008091E80082FD05C08091ED018111F8CF49
:1032F0006CC02091F3008091F20090E0922B029735
:1033000029F48091F1008B7F813021F48091F100CC
:103310008093CE018091E8008B7753C08091EE01BD
:10332000813A09F052C08091F2019091F301892B0A
:1033300009F04BC08091E800877F8093E80080917E
:10334000E80080FFFCCF80911D0136C08091EE0126
:103350008132D9F58091F2019091F301892BA9F581
:103360008091E800877F8093E8000E94DB1B8091BA
:10337000F00180931D010C94230E8091EE018132A7
:1033800021F58091E800877F8093E8000E94DB1B95
:103390008091F1018093CF0108958091EE01813AEF
:1033A000A1F48091E800877F8093E8008091E80095
:1033B00080FFFCCF8091CF018093F1008091E800E5
:1033C0008E778093E8000C94DB1B089584B7877F89
:1033D00084BF0FB6F894A8958091600088618093AF
:1033E0006000109260000FBE90E080E80FB6F89485
:1033F00080936100909361000FBE0E94640A0E9456
:103400002D1C0E948A1C8091E20084608093E2005F
:1034100078940E941F1F0E946C0A83E191E00E9431
:10342000FE098091ED01853069F40E942C15809190
:10343000EB018823B1F30E941415882391F30E94B5
:10344000861AEFCF0E94740AECCF0C94271A292F0A
:10345000332723303105C9F060F42130310581F084
:103460002230310509F04AC08BE390E02AED32E0CA
:1034700049C02132310511F12232310579F13EC0C6
:1034800082E190E025E133E03DC09927813091054C
:1034900061F040F08230910559F0039779F5E4E747
:1034A000F2E008C0E6EDF2E005C0E4ECF2E002C0B4
:1034B000EAE7F2E0849190E09F0124C06115710574
:1034C00041F061307105D1F489E090E025E033E00E
:1034D00019C089E090E02CEE32E014C0611571054E
:1034E00041F06130710551F48FE490E027E233E060
:1034F00009C080E490E026E733E004C080E090E07B
:1035000020E030E0FA0131832083089580E189BD15
:1035100082E189BD09B400FEFDCF8091D8008F7D86
:103520008093D8008091E00082608093E0008091D9
:10353000E00081FDFCCF0895CF92DF92EF92FF92E1
:103540000F931F93CF93DF93EC018B017A010E94BD
:10355000FA1B811133C0E114F10439F0F7018081C5
:103560009181081B190BC80FD91FC12CD12C011533
:10357000110519F18091E80085FD16C08091E800E1
:103580008E778093E800E114F10449F0F70180811F
:103590009181C80ED91ED182C08285E00FC00E94E1
:1035A000FA1B882321F30AC089918093F10001500E
:1035B0001109FFEFCF1ADF0ADACF80E0DF91CF9158
:1035C0001F910F91FF90EF90DF90CF900895209181
:1035D000F4013091F5012617370748F061157105A0
:1035E00039F42091E8002E772093E80001C0B9015A
:1035F000FC0120E06115710579F18091ED018823CE
:10360000F1F18530F1F18091E80083FD3CC08091BB
:10361000E80082FD2EC08091E80080FFEBCF209172
:10362000F3008091F20090E0922B6115710551F04A
:103630008830910538F421912093F100615071098F
:103640000196F3CF21E0089709F020E08091E8008F
:103650008E778093E800CECF2111CFCF0AC0809122
:10366000ED01882361F0853061F08091E80083FDF1
:103670000AC08091E80082FFF2CF80E0089582E0E6
:10368000089583E0089581E008952091F401309138
:10369000F5012617370748F06115710539F42091B7
:1036A000E8002E772093E80001C0B901FC0120E07A
:1036B0006115710591F18091ED01882309F440C0F5
:1036C000853009F43FC08091E80083FD3DC08091C2
:1036D000E80082FD2FC08091E80080FFE9CF2091B3
:1036E000F3008091F20090E0922B6115710559F082
:1036F0008830910540F424912093F1003196615077
:1037000071090196F2CF21E0089709F020E080913D
:10371000E8008E778093E800CBCF2111CCCF0AC090
:103720008091ED01882361F0853061F08091E8009F
:1037300083FD0AC08091E80082FFF2CF80E0089507
:1037400082E0089583E0089581E00895982F9730EE
:1037500068F59093E900981739F07091EC0020918A
:10376000ED005091F00003C0242F762F50E021FD92
:1037700002C09F5FECCF3091EB003E7F3093EB00B7
:103780003091ED003D7F3093ED003091EB003160E2
:103790003093EB007093EC002093ED005093F00019
:1037A0002091EE0027FDE5CF80E008958F70809393
:1037B000E90081E008958091EE0187FF11C08091BA
:1037C000E80082FD05C08091ED018111F8CF11C0A4
:1037D0008091E8008B770BC08091ED01882349F040
:1037E0008091E80080FFF8CF8091E8008E77809389
:1037F000E80008952091E4003091E50095E64091BD
:10380000EC00842F817040FF23C08091E80080FD90
:103810001DC08091ED01882399F0853099F0809149
:10382000EB0085FD11C04091E4005091E5002417A4
:10383000350729F3915011F09A01E1CF84E0089502
:1038400082E0089583E0089581E0089580E008957E
:103850004091E80042FFDDCF08950E949B1C0E942A
:10386000A31CE0EEF0E0808181608083E8EDF0E071
:1038700080818F77808319BCA7EDB0E08C918E7F1B
:103880008C9380818F7E80831092EC0108950F933A
:103890001F93CF93DF930E949B1C0E94A31CC8ED33
:1038A000D0E088818F778883888180688883888149
:1038B0008F7D888319BC1092ED011092E90110925E
:1038C000EB011092EA0100EE10E0F80180818B7F9D
:1038D000808388818160888342E060E080E00E948C
:1038E000A61BE1EEF0E080818E7F8083E2EEF0E0C7
:1038F000808181608083808188608083F8018081FD
:103900008E7F8083888180618883DF91CF911F9132
:103910000F910895E8EDF0E080818F7E8083E7EDE0
:10392000F0E080818160808384E082BF81E08093C9
:10393000EC010C94471CE8EDF0E080818E7F8083E1
:103940001092E20008951092DA001092E1000895BA
:103950001F920F920FB60F9211242F933F934F9304
:103960005F936F937F938F939F93AF93BF93EF93E7
:10397000FF938091E10082FF0BC08091E20082FF03
:1039800007C08091E1008B7F8093E1000E941E1FA1
:103990008091DA0080FF1FC08091D80080FF1BC09B
:1039A0008091DA008E7F8093DA008091D90080FFC9
:1039B0000DC080E189BD82E189BD09B400FEFDCF63
:1039C00081E08093ED010E940A1905C019BC109294
:1039D000ED010E9418198091E10080FF19C08091CB
:1039E000E20080FF15C08091E2008E7F8093E200AC
:1039F0008091E20080618093E2008091D800806233
:103A00008093D80019BC85E08093ED010E941C19B9
:103A10008091E10084FF30C08091E20084FF2CC0DF
:103A200080E189BD82E189BD09B400FEFDCF8091AE
:103A3000D8008F7D8093D8008091E1008F7E8093A5
:103A4000E1008091E2008F7E8093E2008091E200AD
:103A500081608093E2008091E901882311F084E085
:103A600007C08091E30087FD02C081E001C083E0D0
:103A70008093ED010E941D198091E10083FF29C010
:103A80008091E20083FF25C08091E100877F8093D1
:103A9000E10082E08093ED011092E9018091E10064
:103AA0008E7F8093E1008091E2008E7F8093E20020
:103AB0008091E20080618093E20042E060E080E07B
:103AC0000E94A61B8091F00088608093F0000E9405
:103AD0001B19FF91EF91BF91AF919F918F917F91B2
:103AE0006F915F914F913F912F910F900FBE0F906B
:103AF0001F9018951F920F920FB60F9211242F93BB
:103B00003F934F935F936F937F938F939F93AF9365
:103B1000BF93CF93DF93EF93FF93C091E900CF70F2
:103B20008091EC00D82FD17080FDD0E81092E90090
:103B30008091F000877F8093F00078940E94BE1DF2
:103B40001092E9008091F00088608093F000CD2B06
:103B5000CF70C093E900FF91EF91DF91CF91BF91BA
:103B6000AF919F918F917F916F915F914F913F9115
:103B70002F910F900FBE0F901F9018951F93CF930A
:103B8000DF93CDB7DEB7AA970FB6F894DEBF0FBEAE
:103B9000CDBFEEEEF1E08091F100819321E0E63FB0
:103BA000F207C9F70E9429198091E80083FF2EC10E
:103BB0008091EE019091EF01492F50E04A3051057C
:103BC00008F024C1FA01E059FF4F0C944E1F8038D1
:103BD00021F0823809F01AC108C08091EA01909161
:103BE000EB01992389F082600FC08091F2018F7000
:103BF000873008F00BC18093E9008091EB0085FBD2
:103C0000882780F91092E9009091E800977F9093BF
:103C1000E8008093F1001092F100D1C0282F2D7F91
:103C200009F0F4C0882319F0823061F0EFC0809170
:103C3000F001813009F0EAC0933009F080E0809310
:103C4000EB012EC08091F00181112AC08091F20118
:103C50008F702FEF280F263008F0D8C08093E9002E
:103C60002091EB0020FF1CC0933021F48091EB00E9
:103C7000806214C09091EB0090619093EB0021E082
:103C800030E0A90102C0440F551F8A95E2F7409326
:103C9000EA001092EA008091EB0088608093EB00CC
:103CA0001092E9008091E800877F8093E8000E94ED
:103CB000DB1BACC08111AAC01091F0011F7780916D
:103CC000E3008078812B8093E3008091E800877F78
:103CD0008093E8000E94DB1B8091E80080FFFCCF0E
:103CE0008091E30080688093E300111102C082E0BC
:103CF00001C083E08093ED0189C08058823008F0D4
:103D000085C08091F0019091F1018C3D53E09507C1
:103D100079F583E08A838AE289834FB7F894DE01DC
:103D2000139620E03EE051E2E32FF0E0509357007D
:103D3000E49120FF03C0E295EF703F5FEF708E2F9C
:103D400090E0EA3010F0C79601C0C0968D939D9325
:103D50002F5F243149F74FBF8091E800877F809320
:103D6000E8006AE270E0CE0101960E94E71A16C0F0
:103D70006091F2017091F301AE014F5F5F4F0E94BD
:103D8000251ABC01892B09F441C09091E800977F66
:103D90009093E80089819A810E94451B8091E800F8
:103DA0008B778093E80032C0803881F58091E800FD
:103DB000877F8093E8008091E9018093F1008091F2
:103DC000E8008E7772CF811121C08091F00190912F
:103DD000F10199270297D4F48091E800877F8093BE
:103DE000E8008091F0018093E9010E94DB1B809143
:103DF000E901811106C08091E30087FD02C081E0E6
:103E000001C084E08093ED010E941F198091E800B9
:103E100083FF0AC08091E800877F8093E80080914B
:103E2000EB0080628093EB00AA960FB6F894DEBF99
:103E30000FBECDBFDF91CF911F9108950895CF930D
:103E40008091ED018823A1F0C091E900CF7090919D
:103E5000EC00892F817090FD80E8C82B1092E9005A
:103E60008091E80083FD0E94BE1DCF70C093E900E1
:103E7000CF91089597FB072E16F4009407D077FD95
:103E800009D00E94541F07FC05D03EF490958195FF
:103E90009F4F0895709561957F4F0895EE0FFF1F16
:103EA0000590F491E02D0994AA1BBB1B51E107C0BA
:103EB000AA1FBB1FA617B70710F0A61BB70B881FBA
:103EC000991F5A95A9F780959095BC01CD01089549
:103ED000F999FECF92BD81BDF89A992780B50895D2
:103EE000A8E1B0E042E050E00C949C1F262FF99925
:103EF000FECF92BD81BDF89A019700B4021639F049
:103F00001FBA20BD0FB6F894FA9AF99A0FBE089519
:103F10000396272F0E94771F0E94761F252F0E944D
:103F2000771F242F0C94771F0196272F0E94771F4D
:103F30000C94761FDC01CB01FC01F999FECF06C081
:103F4000F2BDE1BDF89A319600B40D924150504057
:083F5000B8F70895F894FFCFC3
:103F5800013101003201043201AC012808641E1449
:103F68000A321EBA18DD18BE180919BD1801F4F571
:0C3F7800F6F73133946697C60000000095
:00000001FF
